{"contracts/test/ReentrancyAttacker.sol":{"ReentrancyAttacker":{"abi":[{"inputs":[{"internalType":"address","name":"_paymentSystem","type":"address"}],"stateMutability":"nonpayable","type":"constructor"},{"inputs":[{"internalType":"address","name":"_target","type":"address"}],"name":"attack","outputs":[],"stateMutability":"payable","type":"function"},{"inputs":[],"name":"attackCount","outputs":[{"internalType":"uint256","name":"","type":"uint256"}],"stateMutability":"view","type":"function"},{"inputs":[],"name":"attacking","outputs":[{"internalType":"bool","name":"","type":"bool"}],"stateMutability":"view","type":"function"},{"inputs":[],"name":"paymentSystem","outputs":[{"internalType":"contract MonadPaymentSystem","name":"","type":"address"}],"stateMutability":"view","type":"function"},{"inputs":[],"name":"stopAttack","outputs":[],"stateMutability":"nonpayable","type":"function"},{"inputs":[],"name":"target","outputs":[{"internalType":"address","name":"","type":"address"}],"stateMutability":"view","type":"function"},{"inputs":[],"name":"withdraw","outputs":[],"stateMutability":"nonpayable","type":"function"},{"stateMutability":"payable","type":"receive"}],"evm":{"bytecode":{"linkReferences":{},"object":"60a060405234801561001057600080fd5b506040516104ec3803806104ec83398101604081905261002f91610040565b6001600160a01b0316608052610070565b60006020828403121561005257600080fd5b81516001600160a01b038116811461006957600080fd5b9392505050565b6080516104546100986000396000818160b1015281816101a4015261034301526104546000f3fe6080604052600436106100745760003560e01c8063407c28211161004e578063407c282114610222578063a3844f0614610246578063d018db3e14610262578063d4b839921461027557600080fd5b80633596f3d6146101925780633c0bbcd9146101e35780633ccfd60b1461020d57600080fd5b3661018d5760025460ff16801561008d57506003600154105b1561018b57600180549060006100a2836103a5565b90915550506001600160a01b037f000000000000000000000000000000000000000000000000000000000000000016631984f1216100e16002476103cc565b600080546001600160a01b0316906100fa6002476103cc565b6040516001600160e01b031960e087901b1681526001600160a01b03938416600482015292909116602483015260448201526080606482015260126084820152711c99595b9d1c985b98de48185d1d195b5c1d60721b60a482015260c4016000604051808303818588803b15801561017157600080fd5b505af1158015610185573d6000803e3d6000fd5b50505050505b005b600080fd5b34801561019e57600080fd5b506101c67f000000000000000000000000000000000000000000000000000000000000000081565b6040516001600160a01b0390911681526020015b60405180910390f35b3480156101ef57600080fd5b506002546101fd9060ff1681565b60405190151581526020016101da565b34801561021957600080fd5b5061018b610295565b34801561022e57600080fd5b5061023860015481565b6040519081526020016101da565b34801561025257600080fd5b5061018b6002805460ff19169055565b61018b6102703660046103ee565b6102c4565b34801561028157600080fd5b506000546101c6906001600160a01b031681565b60405133904780156108fc02916000818181858888f193505050501580156102c1573d6000803e3d6000fd5b50565b600080546001600160a01b0319166001600160a01b038381169190911782556002805460ff19166001908117909155829055604051631984f12160e01b8152306004820152602481019290925234604483018190526080606484015260116084840152707265656e7472616e63792061747461636b60781b60a48401527f000000000000000000000000000000000000000000000000000000000000000090911691631984f121919060c4016000604051808303818588803b15801561038957600080fd5b505af115801561039d573d6000803e3d6000fd5b505050505050565b6000600182016103c557634e487b7160e01b600052601160045260246000fd5b5060010190565b6000826103e957634e487b7160e01b600052601260045260246000fd5b500490565b60006020828403121561040057600080fd5b81356001600160a01b038116811461041757600080fd5b939250505056fea264697066735822122074ce9b1de79493860f0affad1e39a96dd5b99bbc2e3686c2c03660404362918b64736f6c63430008130033","opcodes":"PUSH1 0xA0 PUSH1 0x40 MSTORE CALLVALUE DUP1 ISZERO PUSH2 0x10 JUMPI PUSH1 0x0 DUP1 REVERT JUMPDEST POP PUSH1 0x40 MLOAD PUSH2 0x4EC CODESIZE SUB DUP1 PUSH2 0x4EC DUP4 CODECOPY DUP2 ADD PUSH1 0x40 DUP2 SWAP1 MSTORE PUSH2 0x2F SWAP2 PUSH2 0x40 JUMP JUMPDEST PUSH1 0x1 PUSH1 0x1 PUSH1 0xA0 SHL SUB AND PUSH1 0x80 MSTORE PUSH2 0x70 JUMP JUMPDEST PUSH1 0x0 PUSH1 0x20 DUP3 DUP5 SUB SLT ISZERO PUSH2 0x52 JUMPI PUSH1 0x0 DUP1 REVERT JUMPDEST DUP2 MLOAD PUSH1 0x1 PUSH1 0x1 PUSH1 0xA0 SHL SUB DUP2 AND DUP2 EQ PUSH2 0x69 JUMPI PUSH1 0x0 DUP1 REVERT JUMPDEST SWAP4 SWAP3 POP POP POP JUMP JUMPDEST PUSH1 0x80 MLOAD PUSH2 0x454 PUSH2 0x98 PUSH1 0x0 CODECOPY PUSH1 0x0 DUP2 DUP2 PUSH1 0xB1 ADD MSTORE DUP2 DUP2 PUSH2 0x1A4 ADD MSTORE PUSH2 0x343 ADD MSTORE PUSH2 0x454 PUSH1 0x0 RETURN INVALID PUSH1 0x80 PUSH1 0x40 MSTORE PUSH1 0x4 CALLDATASIZE LT PUSH2 0x74 JUMPI PUSH1 0x0 CALLDATALOAD PUSH1 0xE0 SHR DUP1 PUSH4 0x407C2821 GT PUSH2 0x4E JUMPI DUP1 PUSH4 0x407C2821 EQ PUSH2 0x222 JUMPI DUP1 PUSH4 0xA3844F06 EQ PUSH2 0x246 JUMPI DUP1 PUSH4 0xD018DB3E EQ PUSH2 0x262 JUMPI DUP1 PUSH4 0xD4B83992 EQ PUSH2 0x275 JUMPI PUSH1 0x0 DUP1 REVERT JUMPDEST DUP1 PUSH4 0x3596F3D6 EQ PUSH2 0x192 JUMPI DUP1 PUSH4 0x3C0BBCD9 EQ PUSH2 0x1E3 JUMPI DUP1 PUSH4 0x3CCFD60B EQ PUSH2 0x20D JUMPI PUSH1 0x0 DUP1 REVERT JUMPDEST CALLDATASIZE PUSH2 0x18D JUMPI PUSH1 0x2 SLOAD PUSH1 0xFF AND DUP1 ISZERO PUSH2 0x8D JUMPI POP PUSH1 0x3 PUSH1 0x1 SLOAD LT JUMPDEST ISZERO PUSH2 0x18B JUMPI PUSH1 0x1 DUP1 SLOAD SWAP1 PUSH1 0x0 PUSH2 0xA2 DUP4 PUSH2 0x3A5 JUMP JUMPDEST SWAP1 SWAP2 SSTORE POP POP PUSH1 0x1 PUSH1 0x1 PUSH1 0xA0 SHL SUB PUSH32 0x0 AND PUSH4 0x1984F121 PUSH2 0xE1 PUSH1 0x2 SELFBALANCE PUSH2 0x3CC JUMP JUMPDEST PUSH1 0x0 DUP1 SLOAD PUSH1 0x1 PUSH1 0x1 PUSH1 0xA0 SHL SUB AND SWAP1 PUSH2 0xFA PUSH1 0x2 SELFBALANCE PUSH2 0x3CC JUMP JUMPDEST PUSH1 0x40 MLOAD PUSH1 0x1 PUSH1 0x1 PUSH1 0xE0 SHL SUB NOT PUSH1 0xE0 DUP8 SWAP1 SHL AND DUP2 MSTORE PUSH1 0x1 PUSH1 0x1 PUSH1 0xA0 SHL SUB SWAP4 DUP5 AND PUSH1 0x4 DUP3 ADD MSTORE SWAP3 SWAP1 SWAP2 AND PUSH1 0x24 DUP4 ADD MSTORE PUSH1 0x44 DUP3 ADD MSTORE PUSH1 0x80 PUSH1 0x64 DUP3 ADD MSTORE PUSH1 0x12 PUSH1 0x84 DUP3 ADD MSTORE PUSH18 0x1C99595B9D1C985B98DE48185D1D195B5C1D PUSH1 0x72 SHL PUSH1 0xA4 DUP3 ADD MSTORE PUSH1 0xC4 ADD PUSH1 0x0 PUSH1 0x40 MLOAD DUP1 DUP4 SUB DUP2 DUP6 DUP9 DUP1 EXTCODESIZE ISZERO DUP1 ISZERO PUSH2 0x171 JUMPI PUSH1 0x0 DUP1 REVERT JUMPDEST POP GAS CALL ISZERO DUP1 ISZERO PUSH2 0x185 JUMPI RETURNDATASIZE PUSH1 0x0 DUP1 RETURNDATACOPY RETURNDATASIZE PUSH1 0x0 REVERT JUMPDEST POP POP POP POP POP JUMPDEST STOP JUMPDEST PUSH1 0x0 DUP1 REVERT JUMPDEST CALLVALUE DUP1 ISZERO PUSH2 0x19E JUMPI PUSH1 0x0 DUP1 REVERT JUMPDEST POP PUSH2 0x1C6 PUSH32 0x0 DUP2 JUMP JUMPDEST PUSH1 0x40 MLOAD PUSH1 0x1 PUSH1 0x1 PUSH1 0xA0 SHL SUB SWAP1 SWAP2 AND DUP2 MSTORE PUSH1 0x20 ADD JUMPDEST PUSH1 0x40 MLOAD DUP1 SWAP2 SUB SWAP1 RETURN JUMPDEST CALLVALUE DUP1 ISZERO PUSH2 0x1EF JUMPI PUSH1 0x0 DUP1 REVERT JUMPDEST POP PUSH1 0x2 SLOAD PUSH2 0x1FD SWAP1 PUSH1 0xFF AND DUP2 JUMP JUMPDEST PUSH1 0x40 MLOAD SWAP1 ISZERO ISZERO DUP2 MSTORE PUSH1 0x20 ADD PUSH2 0x1DA JUMP JUMPDEST CALLVALUE DUP1 ISZERO PUSH2 0x219 JUMPI PUSH1 0x0 DUP1 REVERT JUMPDEST POP PUSH2 0x18B PUSH2 0x295 JUMP JUMPDEST CALLVALUE DUP1 ISZERO PUSH2 0x22E JUMPI PUSH1 0x0 DUP1 REVERT JUMPDEST POP PUSH2 0x238 PUSH1 0x1 SLOAD DUP2 JUMP JUMPDEST PUSH1 0x40 MLOAD SWAP1 DUP2 MSTORE PUSH1 0x20 ADD PUSH2 0x1DA JUMP JUMPDEST CALLVALUE DUP1 ISZERO PUSH2 0x252 JUMPI PUSH1 0x0 DUP1 REVERT JUMPDEST POP PUSH2 0x18B PUSH1 0x2 DUP1 SLOAD PUSH1 0xFF NOT AND SWAP1 SSTORE JUMP JUMPDEST PUSH2 0x18B PUSH2 0x270 CALLDATASIZE PUSH1 0x4 PUSH2 0x3EE JUMP JUMPDEST PUSH2 0x2C4 JUMP JUMPDEST CALLVALUE DUP1 ISZERO PUSH2 0x281 JUMPI PUSH1 0x0 DUP1 REVERT JUMPDEST POP PUSH1 0x0 SLOAD PUSH2 0x1C6 SWAP1 PUSH1 0x1 PUSH1 0x1 PUSH1 0xA0 SHL SUB AND DUP2 JUMP JUMPDEST PUSH1 0x40 MLOAD CALLER SWAP1 SELFBALANCE DUP1 ISZERO PUSH2 0x8FC MUL SWAP2 PUSH1 0x0 DUP2 DUP2 DUP2 DUP6 DUP9 DUP9 CALL SWAP4 POP POP POP POP ISZERO DUP1 ISZERO PUSH2 0x2C1 JUMPI RETURNDATASIZE PUSH1 0x0 DUP1 RETURNDATACOPY RETURNDATASIZE PUSH1 0x0 REVERT JUMPDEST POP JUMP JUMPDEST PUSH1 0x0 DUP1 SLOAD PUSH1 0x1 PUSH1 0x1 PUSH1 0xA0 SHL SUB NOT AND PUSH1 0x1 PUSH1 0x1 PUSH1 0xA0 SHL SUB DUP4 DUP2 AND SWAP2 SWAP1 SWAP2 OR DUP3 SSTORE PUSH1 0x2 DUP1 SLOAD PUSH1 0xFF NOT AND PUSH1 0x1 SWAP1 DUP2 OR SWAP1 SWAP2 SSTORE DUP3 SWAP1 SSTORE PUSH1 0x40 MLOAD PUSH4 0x1984F121 PUSH1 0xE0 SHL DUP2 MSTORE ADDRESS PUSH1 0x4 DUP3 ADD MSTORE PUSH1 0x24 DUP2 ADD SWAP3 SWAP1 SWAP3 MSTORE CALLVALUE PUSH1 0x44 DUP4 ADD DUP2 SWAP1 MSTORE PUSH1 0x80 PUSH1 0x64 DUP5 ADD MSTORE PUSH1 0x11 PUSH1 0x84 DUP5 ADD MSTORE PUSH17 0x7265656E7472616E63792061747461636B PUSH1 0x78 SHL PUSH1 0xA4 DUP5 ADD MSTORE PUSH32 0x0 SWAP1 SWAP2 AND SWAP2 PUSH4 0x1984F121 SWAP2 SWAP1 PUSH1 0xC4 ADD PUSH1 0x0 PUSH1 0x40 MLOAD DUP1 DUP4 SUB DUP2 DUP6 DUP9 DUP1 EXTCODESIZE ISZERO DUP1 ISZERO PUSH2 0x389 JUMPI PUSH1 0x0 DUP1 REVERT JUMPDEST POP GAS CALL ISZERO DUP1 ISZERO PUSH2 0x39D JUMPI RETURNDATASIZE PUSH1 0x0 DUP1 RETURNDATACOPY RETURNDATASIZE PUSH1 0x0 REVERT JUMPDEST POP POP POP POP POP POP JUMP JUMPDEST PUSH1 0x0 PUSH1 0x1 DUP3 ADD PUSH2 0x3C5 JUMPI PUSH4 0x4E487B71 PUSH1 0xE0 SHL PUSH1 0x0 MSTORE PUSH1 0x11 PUSH1 0x4 MSTORE PUSH1 0x24 PUSH1 0x0 REVERT JUMPDEST POP PUSH1 0x1 ADD SWAP1 JUMP JUMPDEST PUSH1 0x0 DUP3 PUSH2 0x3E9 JUMPI PUSH4 0x4E487B71 PUSH1 0xE0 SHL PUSH1 0x0 MSTORE PUSH1 0x12 PUSH1 0x4 MSTORE PUSH1 0x24 PUSH1 0x0 REVERT JUMPDEST POP DIV SWAP1 JUMP JUMPDEST PUSH1 0x0 PUSH1 0x20 DUP3 DUP5 SUB SLT ISZERO PUSH2 0x400 JUMPI PUSH1 0x0 DUP1 REVERT JUMPDEST DUP2 CALLDATALOAD PUSH1 0x1 PUSH1 0x1 PUSH1 0xA0 SHL SUB DUP2 AND DUP2 EQ PUSH2 0x417 JUMPI PUSH1 0x0 DUP1 REVERT JUMPDEST SWAP4 SWAP3 POP POP POP JUMP INVALID LOG2 PUSH5 0x6970667358 0x22 SLT KECCAK256 PUSH21 0xCE9B1DE79493860F0AFFAD1E39A96DD5B99BBC2E36 DUP7 0xC2 0xC0 CALLDATASIZE PUSH1 0x40 NUMBER PUSH3 0x918B64 PUSH20 0x6F6C634300081300330000000000000000000000 "},"methodIdentifiers":{"attack(address)":"d018db3e","attackCount()":"407c2821","attacking()":"3c0bbcd9","paymentSystem()":"3596f3d6","stopAttack()":"a3844f06","target()":"d4b83992","withdraw()":"3ccfd60b"}}}}}