{"contracts/MonadPayURLParser.sol":{"MonadPayURLParser":{"abi":[{"inputs":[{"internalType":"address","name":"_paymentSystem","type":"address"}],"stateMutability":"nonpayable","type":"constructor"},{"anonymous":false,"inputs":[{"indexed":true,"internalType":"address","name":"payer","type":"address"},{"indexed":false,"internalType":"string","name":"originalURL","type":"string"},{"indexed":false,"internalType":"address","name":"recipient","type":"address"},{"indexed":false,"internalType":"uint256","name":"amount","type":"uint256"},{"indexed":false,"internalType":"address","name":"token","type":"address"},{"indexed":false,"internalType":"string","name":"label","type":"string"}],"name":"URLPaymentProcessed","type":"event"},{"inputs":[{"internalType":"address","name":"addr","type":"address"}],"name":"addressToString","outputs":[{"internalType":"string","name":"","type":"string"}],"stateMutability":"pure","type":"function"},{"inputs":[{"internalType":"address","name":"to","type":"address"},{"internalType":"uint256","name":"amount","type":"uint256"},{"internalType":"string","name":"tokenSymbol","type":"string"},{"internalType":"string","name":"label","type":"string"}],"name":"buildMonadPayURL","outputs":[{"internalType":"string","name":"","type":"string"}],"stateMutability":"pure","type":"function"},{"inputs":[{"internalType":"string","name":"tokenSymbol","type":"string"},{"internalType":"string","name":"tokenAddress","type":"string"}],"name":"determineTokenAddress","outputs":[{"internalType":"address","name":"","type":"address"}],"stateMutability":"view","type":"function"},{"inputs":[{"internalType":"string","name":"addrStr","type":"string"}],"name":"parseAddress","outputs":[{"internalType":"address","name":"","type":"address"}],"stateMutability":"pure","type":"function"},{"inputs":[{"internalType":"string","name":"amountStr","type":"string"}],"name":"parseAmount","outputs":[{"internalType":"uint256","name":"","type":"uint256"}],"stateMutability":"pure","type":"function"},{"inputs":[{"internalType":"string","name":"numStr","type":"string"}],"name":"parseUint","outputs":[{"internalType":"uint256","name":"","type":"uint256"}],"stateMutability":"pure","type":"function"},{"inputs":[{"internalType":"string","name":"to","type":"string"},{"internalType":"string","name":"amount","type":"string"},{"internalType":"string","name":"tokenSymbol","type":"string"},{"internalType":"string","name":"label","type":"string"}],"name":"payBySymbol","outputs":[],"stateMutability":"payable","type":"function"},{"inputs":[],"name":"paymentSystem","outputs":[{"internalType":"contract MonadPaymentSystem","name":"","type":"address"}],"stateMutability":"view","type":"function"},{"inputs":[{"components":[{"internalType":"string","name":"to","type":"string"},{"internalType":"string","name":"amount","type":"string"},{"internalType":"string","name":"token","type":"string"},{"internalType":"string","name":"tokenAddress","type":"string"},{"internalType":"string","name":"chainId","type":"string"},{"internalType":"string","name":"label","type":"string"}],"internalType":"struct MonadPayURLParser.URLParams","name":"urlParams","type":"tuple"},{"internalType":"string","name":"originalURL","type":"string"}],"name":"processURLPayment","outputs":[],"stateMutability":"payable","type":"function"},{"inputs":[{"internalType":"uint256","name":"value","type":"uint256"}],"name":"uintToString","outputs":[{"internalType":"string","name":"","type":"string"}],"stateMutability":"pure","type":"function"}],"evm":{"bytecode":{"linkReferences":{},"object":"60a060405234801561001057600080fd5b5060405161133338038061133383398101604081905261002f91610040565b6001600160a01b0316608052610070565b60006020828403121561005257600080fd5b81516001600160a01b038116811461006957600080fd5b9392505050565b60805161128d6100a66000396000818160a8015281816103c6015281816104550152818161073b0152610946015261128d6000f3fe6080604052600436106100915760003560e01c8063a87f217011610059578063a87f21701461017f578063c6ce059d1461019f578063e373d327146101bf578063e9395679146101d2578063fa91454d146101f257600080fd5b80633596f3d61461009657806340762578146100e7578063575873e51461011d5780635e57966d146101325780636a324ca21461015f575b600080fd5b3480156100a257600080fd5b506100ca7f000000000000000000000000000000000000000000000000000000000000000081565b6040516001600160a01b0390911681526020015b60405180910390f35b3480156100f357600080fd5b5061010f610102366004610c61565b50670de0b6b3a764000090565b6040519081526020016100de565b61013061012b366004610c96565b610212565b005b34801561013e57600080fd5b5061015261014d366004610df4565b610515565b6040516100de9190610e68565b34801561016b57600080fd5b506100ca61017a366004610e7b565b610700565b34801561018b57600080fd5b5061015261019a366004610ec8565b6107c4565b3480156101ab57600080fd5b506100ca6101ba366004610c61565b610806565b6101306101cd366004610f48565b610917565b3480156101de57600080fd5b506101526101ed366004610fba565b6109bd565b3480156101fe57600080fd5b5061010f61020d366004610c61565b610ac6565b8151516102665760405162461bcd60e51b815260206004820152601960248201527f4d697373696e6720726563697069656e7420616464726573730000000000000060448201526064015b60405180910390fd5b6000826020015151116102ac5760405162461bcd60e51b815260206004820152600e60248201526d135a5cdcda5b99c8185b5bdd5b9d60921b604482015260640161025d565b60006102bb8360000151610806565b90506001600160a01b0381166103135760405162461bcd60e51b815260206004820152601960248201527f496e76616c696420726563697069656e74206164647265737300000000000000604482015260640161025d565b670de0b6b3a7640000600061033085604001518660600151610700565b6080860151519091501561039c57600061034d8660800151610ac6565b905080158061035b57504681145b61039a5760405162461bcd60e51b815260206004820152601060248201526f125b9d985b1a590818da185a5b88125160821b604482015260640161025d565b505b6001600160a01b0381166104395760a0850151604051631984f12160e01b81526001600160a01b037f00000000000000000000000000000000000000000000000000000000000000001691631984f1219134916104029188918791899190600401610fd3565b6000604051808303818588803b15801561041b57600080fd5b505af115801561042f573d6000803e3d6000fd5b50505050506104c1565b60a0850151604051631984f12160e01b81526001600160a01b037f00000000000000000000000000000000000000000000000000000000000000001691631984f1219161048e91879186918891600401610fd3565b600060405180830381600087803b1580156104a857600080fd5b505af11580156104bc573d6000803e3d6000fd5b505050505b336001600160a01b03167fccbd5248a2fadd919f77d9ffa9859ddf31e1b2f6d31486b30436e2d358ba8121858585858a60a00151604051610506959493929190611010565b60405180910390a25050505050565b604080518082018252601081526f181899199a1a9b1b9c1cb0b131b232b360811b60208201528151602a80825260608281019094526001600160a01b0385169291600091602082018180368337019050509050600360fc1b816000815181106105805761058061105f565b60200101906001600160f81b031916908160001a905350600f60fb1b816001815181106105af576105af61105f565b60200101906001600160f81b031916908160001a90535060005b60148110156106f757826004856105e184600c61108b565b602081106105f1576105f161105f565b1a60f81b6001600160f81b031916901c60f81c60ff16815181106106175761061761105f565b01602001516001600160f81b0319168261063283600261109e565b61063d90600261108b565b8151811061064d5761064d61105f565b60200101906001600160f81b031916908160001a905350828461067183600c61108b565b602081106106815761068161105f565b825191901a600f169081106106985761069861105f565b01602001516001600160f81b031916826106b383600261109e565b6106be90600361108b565b815181106106ce576106ce61105f565b60200101906001600160f81b031916908160001a905350806106ef816110b5565b9150506105c9565b50949350505050565b80516000901561071a5761071382610806565b90506107be565b8251156107ba5760405163efa74f1f60e01b81526000906001600160a01b037f0000000000000000000000000000000000000000000000000000000000000000169063efa74f1f90610770908790600401610e68565b602060405180830381865afa15801561078d573d6000803e3d6000fd5b505050506040513d601f19601f820116820180604052508101906107b191906110ce565b91506107be9050565b5060005b92915050565b60606107cf85610515565b6107d8856109bd565b84846040516020016107ed94939291906110eb565b6040516020818303038152906040529050949350505050565b80516000908290602a146108555760405162461bcd60e51b8152602060048201526016602482015275092dcecc2d8d2c840c2c8c8e4cae6e640d8cadccee8d60531b604482015260640161025d565b806000815181106108685761086861105f565b6020910101516001600160f81b031916600360fc1b1480156108af5750806001815181106108985761089861105f565b6020910101516001600160f81b031916600f60fb1b145b6108fb5760405162461bcd60e51b815260206004820152601a60248201527f41646472657373206d7573742073746172742077697468203078000000000000604482015260640161025d565b5073123456789012345678901234567890123456789092915050565b600061092285610806565b604051639e7ba2d360e01b8152909150670de0b6b3a7640000906001600160a01b037f00000000000000000000000000000000000000000000000000000000000000001690639e7ba2d390349061098390869086908a908a906004016111a9565b6000604051808303818588803b15801561099c57600080fd5b505af11580156109b0573d6000803e3d6000fd5b5050505050505050505050565b6060816000036109e45750506040805180820190915260018152600360fc1b602082015290565b8160005b8115610a0e57806109f8816110b5565b9150610a079050600a83611203565b91506109e8565b60008167ffffffffffffffff811115610a2957610a29610b95565b6040519080825280601f01601f191660200182016040528015610a53576020820181803683370190505b5090505b8415610abe57610a68600183611217565b9150610a75600a8661122a565b610a8090603061108b565b60f81b818381518110610a9557610a9561105f565b60200101906001600160f81b031916908160001a905350610ab7600a86611203565b9450610a57565b949350505050565b60008181805b8251811015610b8d576000838281518110610ae957610ae961105f565b016020015160f81c905060308110801590610b08575060398160ff1611155b610b545760405162461bcd60e51b815260206004820152601860248201527f496e76616c6964206e756d626572206368617261637465720000000000000000604482015260640161025d565b610b5f60308261123e565b60ff16610b6d84600a61109e565b610b77919061108b565b9250508080610b85906110b5565b915050610acc565b509392505050565b634e487b7160e01b600052604160045260246000fd5b60405160c0810167ffffffffffffffff81118282101715610bce57610bce610b95565b60405290565b600082601f830112610be557600080fd5b813567ffffffffffffffff80821115610c0057610c00610b95565b604051601f8301601f19908116603f01168101908282118183101715610c2857610c28610b95565b81604052838152866020858801011115610c4157600080fd5b836020870160208301376000602085830101528094505050505092915050565b600060208284031215610c7357600080fd5b813567ffffffffffffffff811115610c8a57600080fd5b610abe84828501610bd4565b60008060408385031215610ca957600080fd5b823567ffffffffffffffff80821115610cc157600080fd5b9084019060c08287031215610cd557600080fd5b610cdd610bab565b823582811115610cec57600080fd5b610cf888828601610bd4565b825250602083013582811115610d0d57600080fd5b610d1988828601610bd4565b602083015250604083013582811115610d3157600080fd5b610d3d88828601610bd4565b604083015250606083013582811115610d5557600080fd5b610d6188828601610bd4565b606083015250608083013582811115610d7957600080fd5b610d8588828601610bd4565b60808301525060a083013582811115610d9d57600080fd5b610da988828601610bd4565b60a08301525093506020850135915080821115610dc557600080fd5b50610dd285828601610bd4565b9150509250929050565b6001600160a01b0381168114610df157600080fd5b50565b600060208284031215610e0657600080fd5b8135610e1181610ddc565b9392505050565b60005b83811015610e33578181015183820152602001610e1b565b50506000910152565b60008151808452610e54816020860160208601610e18565b601f01601f19169290920160200192915050565b602081526000610e116020830184610e3c565b60008060408385031215610e8e57600080fd5b823567ffffffffffffffff80821115610ea657600080fd5b610eb286838701610bd4565b93506020850135915080821115610dc557600080fd5b60008060008060808587031215610ede57600080fd5b8435610ee981610ddc565b935060208501359250604085013567ffffffffffffffff80821115610f0d57600080fd5b610f1988838901610bd4565b93506060870135915080821115610f2f57600080fd5b50610f3c87828801610bd4565b91505092959194509250565b60008060008060808587031215610f5e57600080fd5b843567ffffffffffffffff80821115610f7657600080fd5b610f8288838901610bd4565b95506020870135915080821115610f9857600080fd5b610fa488838901610bd4565b94506040870135915080821115610f0d57600080fd5b600060208284031215610fcc57600080fd5b5035919050565b6001600160a01b038581168252841660208201526040810183905260806060820181905260009061100690830184610e3c565b9695505050505050565b60a08152600061102360a0830188610e3c565b6001600160a01b038781166020850152604084018790528516606084015282810360808401526110538185610e3c565b98975050505050505050565b634e487b7160e01b600052603260045260246000fd5b634e487b7160e01b600052601160045260246000fd5b808201808211156107be576107be611075565b80820281158282048414176107be576107be611075565b6000600182016110c7576110c7611075565b5060010190565b6000602082840312156110e057600080fd5b8151610e1181610ddc565b7f68747470733a2f2f7061792e6d6f6e61642e6c696e6b2f73656e643f746f3d0081526000855161112381601f850160208a01610e18565b6726616d6f756e743d60c01b601f91840191820152855161114b816027840160208a01610e18565b6626746f6b656e3d60c81b60279290910191820152845161117381602e840160208901610e18565b66266c6162656c3d60c81b602e9290910191820152835161119b816035840160208801610e18565b016035019695505050505050565b60018060a01b03851681528360208201526080604082015260006111d06080830185610e3c565b82810360608401526111e28185610e3c565b979650505050505050565b634e487b7160e01b600052601260045260246000fd5b600082611212576112126111ed565b500490565b818103818111156107be576107be611075565b600082611239576112396111ed565b500690565b60ff82811682821603908111156107be576107be61107556fea264697066735822122049a2536ca091bb2141b3c66d9bbb6251e73aa1c1b6f18fb0767744bf782778ca64736f6c63430008130033","opcodes":"PUSH1 0xA0 PUSH1 0x40 MSTORE CALLVALUE DUP1 ISZERO PUSH2 0x10 JUMPI PUSH1 0x0 DUP1 REVERT JUMPDEST POP PUSH1 0x40 MLOAD PUSH2 0x1333 CODESIZE SUB DUP1 PUSH2 0x1333 DUP4 CODECOPY DUP2 ADD PUSH1 0x40 DUP2 SWAP1 MSTORE PUSH2 0x2F SWAP2 PUSH2 0x40 JUMP JUMPDEST PUSH1 0x1 PUSH1 0x1 PUSH1 0xA0 SHL SUB AND PUSH1 0x80 MSTORE PUSH2 0x70 JUMP JUMPDEST PUSH1 0x0 PUSH1 0x20 DUP3 DUP5 SUB SLT ISZERO PUSH2 0x52 JUMPI PUSH1 0x0 DUP1 REVERT JUMPDEST DUP2 MLOAD PUSH1 0x1 PUSH1 0x1 PUSH1 0xA0 SHL SUB DUP2 AND DUP2 EQ PUSH2 0x69 JUMPI PUSH1 0x0 DUP1 REVERT JUMPDEST SWAP4 SWAP3 POP POP POP JUMP JUMPDEST PUSH1 0x80 MLOAD PUSH2 0x128D PUSH2 0xA6 PUSH1 0x0 CODECOPY PUSH1 0x0 DUP2 DUP2 PUSH1 0xA8 ADD MSTORE DUP2 DUP2 PUSH2 0x3C6 ADD MSTORE DUP2 DUP2 PUSH2 0x455 ADD MSTORE DUP2 DUP2 PUSH2 0x73B ADD MSTORE PUSH2 0x946 ADD MSTORE PUSH2 0x128D PUSH1 0x0 RETURN INVALID PUSH1 0x80 PUSH1 0x40 MSTORE PUSH1 0x4 CALLDATASIZE LT PUSH2 0x91 JUMPI PUSH1 0x0 CALLDATALOAD PUSH1 0xE0 SHR DUP1 PUSH4 0xA87F2170 GT PUSH2 0x59 JUMPI DUP1 PUSH4 0xA87F2170 EQ PUSH2 0x17F JUMPI DUP1 PUSH4 0xC6CE059D EQ PUSH2 0x19F JUMPI DUP1 PUSH4 0xE373D327 EQ PUSH2 0x1BF JUMPI DUP1 PUSH4 0xE9395679 EQ PUSH2 0x1D2 JUMPI DUP1 PUSH4 0xFA91454D EQ PUSH2 0x1F2 JUMPI PUSH1 0x0 DUP1 REVERT JUMPDEST DUP1 PUSH4 0x3596F3D6 EQ PUSH2 0x96 JUMPI DUP1 PUSH4 0x40762578 EQ PUSH2 0xE7 JUMPI DUP1 PUSH4 0x575873E5 EQ PUSH2 0x11D JUMPI DUP1 PUSH4 0x5E57966D EQ PUSH2 0x132 JUMPI DUP1 PUSH4 0x6A324CA2 EQ PUSH2 0x15F JUMPI JUMPDEST PUSH1 0x0 DUP1 REVERT JUMPDEST CALLVALUE DUP1 ISZERO PUSH2 0xA2 JUMPI PUSH1 0x0 DUP1 REVERT JUMPDEST POP PUSH2 0xCA PUSH32 0x0 DUP2 JUMP JUMPDEST PUSH1 0x40 MLOAD PUSH1 0x1 PUSH1 0x1 PUSH1 0xA0 SHL SUB SWAP1 SWAP2 AND DUP2 MSTORE PUSH1 0x20 ADD JUMPDEST PUSH1 0x40 MLOAD DUP1 SWAP2 SUB SWAP1 RETURN JUMPDEST CALLVALUE DUP1 ISZERO PUSH2 0xF3 JUMPI PUSH1 0x0 DUP1 REVERT JUMPDEST POP PUSH2 0x10F PUSH2 0x102 CALLDATASIZE PUSH1 0x4 PUSH2 0xC61 JUMP JUMPDEST POP PUSH8 0xDE0B6B3A7640000 SWAP1 JUMP JUMPDEST PUSH1 0x40 MLOAD SWAP1 DUP2 MSTORE PUSH1 0x20 ADD PUSH2 0xDE JUMP JUMPDEST PUSH2 0x130 PUSH2 0x12B CALLDATASIZE PUSH1 0x4 PUSH2 0xC96 JUMP JUMPDEST PUSH2 0x212 JUMP JUMPDEST STOP JUMPDEST CALLVALUE DUP1 ISZERO PUSH2 0x13E JUMPI PUSH1 0x0 DUP1 REVERT JUMPDEST POP PUSH2 0x152 PUSH2 0x14D CALLDATASIZE PUSH1 0x4 PUSH2 0xDF4 JUMP JUMPDEST PUSH2 0x515 JUMP JUMPDEST PUSH1 0x40 MLOAD PUSH2 0xDE SWAP2 SWAP1 PUSH2 0xE68 JUMP JUMPDEST CALLVALUE DUP1 ISZERO PUSH2 0x16B JUMPI PUSH1 0x0 DUP1 REVERT JUMPDEST POP PUSH2 0xCA PUSH2 0x17A CALLDATASIZE PUSH1 0x4 PUSH2 0xE7B JUMP JUMPDEST PUSH2 0x700 JUMP JUMPDEST CALLVALUE DUP1 ISZERO PUSH2 0x18B JUMPI PUSH1 0x0 DUP1 REVERT JUMPDEST POP PUSH2 0x152 PUSH2 0x19A CALLDATASIZE PUSH1 0x4 PUSH2 0xEC8 JUMP JUMPDEST PUSH2 0x7C4 JUMP JUMPDEST CALLVALUE DUP1 ISZERO PUSH2 0x1AB JUMPI PUSH1 0x0 DUP1 REVERT JUMPDEST POP PUSH2 0xCA PUSH2 0x1BA CALLDATASIZE PUSH1 0x4 PUSH2 0xC61 JUMP JUMPDEST PUSH2 0x806 JUMP JUMPDEST PUSH2 0x130 PUSH2 0x1CD CALLDATASIZE PUSH1 0x4 PUSH2 0xF48 JUMP JUMPDEST PUSH2 0x917 JUMP JUMPDEST CALLVALUE DUP1 ISZERO PUSH2 0x1DE JUMPI PUSH1 0x0 DUP1 REVERT JUMPDEST POP PUSH2 0x152 PUSH2 0x1ED CALLDATASIZE PUSH1 0x4 PUSH2 0xFBA JUMP JUMPDEST PUSH2 0x9BD JUMP JUMPDEST CALLVALUE DUP1 ISZERO PUSH2 0x1FE JUMPI PUSH1 0x0 DUP1 REVERT JUMPDEST POP PUSH2 0x10F PUSH2 0x20D CALLDATASIZE PUSH1 0x4 PUSH2 0xC61 JUMP JUMPDEST PUSH2 0xAC6 JUMP JUMPDEST DUP2 MLOAD MLOAD PUSH2 0x266 JUMPI PUSH1 0x40 MLOAD PUSH3 0x461BCD PUSH1 0xE5 SHL DUP2 MSTORE PUSH1 0x20 PUSH1 0x4 DUP3 ADD MSTORE PUSH1 0x19 PUSH1 0x24 DUP3 ADD MSTORE PUSH32 0x4D697373696E6720726563697069656E74206164647265737300000000000000 PUSH1 0x44 DUP3 ADD MSTORE PUSH1 0x64 ADD JUMPDEST PUSH1 0x40 MLOAD DUP1 SWAP2 SUB SWAP1 REVERT JUMPDEST PUSH1 0x0 DUP3 PUSH1 0x20 ADD MLOAD MLOAD GT PUSH2 0x2AC JUMPI PUSH1 0x40 MLOAD PUSH3 0x461BCD PUSH1 0xE5 SHL DUP2 MSTORE PUSH1 0x20 PUSH1 0x4 DUP3 ADD MSTORE PUSH1 0xE PUSH1 0x24 DUP3 ADD MSTORE PUSH14 0x135A5CDCDA5B99C8185B5BDD5B9D PUSH1 0x92 SHL PUSH1 0x44 DUP3 ADD MSTORE PUSH1 0x64 ADD PUSH2 0x25D JUMP JUMPDEST PUSH1 0x0 PUSH2 0x2BB DUP4 PUSH1 0x0 ADD MLOAD PUSH2 0x806 JUMP JUMPDEST SWAP1 POP PUSH1 0x1 PUSH1 0x1 PUSH1 0xA0 SHL SUB DUP2 AND PUSH2 0x313 JUMPI PUSH1 0x40 MLOAD PUSH3 0x461BCD PUSH1 0xE5 SHL DUP2 MSTORE PUSH1 0x20 PUSH1 0x4 DUP3 ADD MSTORE PUSH1 0x19 PUSH1 0x24 DUP3 ADD MSTORE PUSH32 0x496E76616C696420726563697069656E74206164647265737300000000000000 PUSH1 0x44 DUP3 ADD MSTORE PUSH1 0x64 ADD PUSH2 0x25D JUMP JUMPDEST PUSH8 0xDE0B6B3A7640000 PUSH1 0x0 PUSH2 0x330 DUP6 PUSH1 0x40 ADD MLOAD DUP7 PUSH1 0x60 ADD MLOAD PUSH2 0x700 JUMP JUMPDEST PUSH1 0x80 DUP7 ADD MLOAD MLOAD SWAP1 SWAP2 POP ISZERO PUSH2 0x39C JUMPI PUSH1 0x0 PUSH2 0x34D DUP7 PUSH1 0x80 ADD MLOAD PUSH2 0xAC6 JUMP JUMPDEST SWAP1 POP DUP1 ISZERO DUP1 PUSH2 0x35B JUMPI POP CHAINID DUP2 EQ JUMPDEST PUSH2 0x39A JUMPI PUSH1 0x40 MLOAD PUSH3 0x461BCD PUSH1 0xE5 SHL DUP2 MSTORE PUSH1 0x20 PUSH1 0x4 DUP3 ADD MSTORE PUSH1 0x10 PUSH1 0x24 DUP3 ADD MSTORE PUSH16 0x125B9D985B1A590818DA185A5B881251 PUSH1 0x82 SHL PUSH1 0x44 DUP3 ADD MSTORE PUSH1 0x64 ADD PUSH2 0x25D JUMP JUMPDEST POP JUMPDEST PUSH1 0x1 PUSH1 0x1 PUSH1 0xA0 SHL SUB DUP2 AND PUSH2 0x439 JUMPI PUSH1 0xA0 DUP6 ADD MLOAD PUSH1 0x40 MLOAD PUSH4 0x1984F121 PUSH1 0xE0 SHL DUP2 MSTORE PUSH1 0x1 PUSH1 0x1 PUSH1 0xA0 SHL SUB PUSH32 0x0 AND SWAP2 PUSH4 0x1984F121 SWAP2 CALLVALUE SWAP2 PUSH2 0x402 SWAP2 DUP9 SWAP2 DUP8 SWAP2 DUP10 SWAP2 SWAP1 PUSH1 0x4 ADD PUSH2 0xFD3 JUMP JUMPDEST PUSH1 0x0 PUSH1 0x40 MLOAD DUP1 DUP4 SUB DUP2 DUP6 DUP9 DUP1 EXTCODESIZE ISZERO DUP1 ISZERO PUSH2 0x41B JUMPI PUSH1 0x0 DUP1 REVERT JUMPDEST POP GAS CALL ISZERO DUP1 ISZERO PUSH2 0x42F JUMPI RETURNDATASIZE PUSH1 0x0 DUP1 RETURNDATACOPY RETURNDATASIZE PUSH1 0x0 REVERT JUMPDEST POP POP POP POP POP PUSH2 0x4C1 JUMP JUMPDEST PUSH1 0xA0 DUP6 ADD MLOAD PUSH1 0x40 MLOAD PUSH4 0x1984F121 PUSH1 0xE0 SHL DUP2 MSTORE PUSH1 0x1 PUSH1 0x1 PUSH1 0xA0 SHL SUB PUSH32 0x0 AND SWAP2 PUSH4 0x1984F121 SWAP2 PUSH2 0x48E SWAP2 DUP8 SWAP2 DUP7 SWAP2 DUP9 SWAP2 PUSH1 0x4 ADD PUSH2 0xFD3 JUMP JUMPDEST PUSH1 0x0 PUSH1 0x40 MLOAD DUP1 DUP4 SUB DUP2 PUSH1 0x0 DUP8 DUP1 EXTCODESIZE ISZERO DUP1 ISZERO PUSH2 0x4A8 JUMPI PUSH1 0x0 DUP1 REVERT JUMPDEST POP GAS CALL ISZERO DUP1 ISZERO PUSH2 0x4BC JUMPI RETURNDATASIZE PUSH1 0x0 DUP1 RETURNDATACOPY RETURNDATASIZE PUSH1 0x0 REVERT JUMPDEST POP POP POP POP JUMPDEST CALLER PUSH1 0x1 PUSH1 0x1 PUSH1 0xA0 SHL SUB AND PUSH32 0xCCBD5248A2FADD919F77D9FFA9859DDF31E1B2F6D31486B30436E2D358BA8121 DUP6 DUP6 DUP6 DUP6 DUP11 PUSH1 0xA0 ADD MLOAD PUSH1 0x40 MLOAD PUSH2 0x506 SWAP6 SWAP5 SWAP4 SWAP3 SWAP2 SWAP1 PUSH2 0x1010 JUMP JUMPDEST PUSH1 0x40 MLOAD DUP1 SWAP2 SUB SWAP1 LOG2 POP POP POP POP POP JUMP JUMPDEST PUSH1 0x40 DUP1 MLOAD DUP1 DUP3 ADD DUP3 MSTORE PUSH1 0x10 DUP2 MSTORE PUSH16 0x181899199A1A9B1B9C1CB0B131B232B3 PUSH1 0x81 SHL PUSH1 0x20 DUP3 ADD MSTORE DUP2 MLOAD PUSH1 0x2A DUP1 DUP3 MSTORE PUSH1 0x60 DUP3 DUP2 ADD SWAP1 SWAP5 MSTORE PUSH1 0x1 PUSH1 0x1 PUSH1 0xA0 SHL SUB DUP6 AND SWAP3 SWAP2 PUSH1 0x0 SWAP2 PUSH1 0x20 DUP3 ADD DUP2 DUP1 CALLDATASIZE DUP4 CALLDATACOPY ADD SWAP1 POP POP SWAP1 POP PUSH1 0x3 PUSH1 0xFC SHL DUP2 PUSH1 0x0 DUP2 MLOAD DUP2 LT PUSH2 0x580 JUMPI PUSH2 0x580 PUSH2 0x105F JUMP JUMPDEST PUSH1 0x20 ADD ADD SWAP1 PUSH1 0x1 PUSH1 0x1 PUSH1 0xF8 SHL SUB NOT AND SWAP1 DUP2 PUSH1 0x0 BYTE SWAP1 MSTORE8 POP PUSH1 0xF PUSH1 0xFB SHL DUP2 PUSH1 0x1 DUP2 MLOAD DUP2 LT PUSH2 0x5AF JUMPI PUSH2 0x5AF PUSH2 0x105F JUMP JUMPDEST PUSH1 0x20 ADD ADD SWAP1 PUSH1 0x1 PUSH1 0x1 PUSH1 0xF8 SHL SUB NOT AND SWAP1 DUP2 PUSH1 0x0 BYTE SWAP1 MSTORE8 POP PUSH1 0x0 JUMPDEST PUSH1 0x14 DUP2 LT ISZERO PUSH2 0x6F7 JUMPI DUP3 PUSH1 0x4 DUP6 PUSH2 0x5E1 DUP5 PUSH1 0xC PUSH2 0x108B JUMP JUMPDEST PUSH1 0x20 DUP2 LT PUSH2 0x5F1 JUMPI PUSH2 0x5F1 PUSH2 0x105F JUMP JUMPDEST BYTE PUSH1 0xF8 SHL PUSH1 0x1 PUSH1 0x1 PUSH1 0xF8 SHL SUB NOT AND SWAP1 SHR PUSH1 0xF8 SHR PUSH1 0xFF AND DUP2 MLOAD DUP2 LT PUSH2 0x617 JUMPI PUSH2 0x617 PUSH2 0x105F JUMP JUMPDEST ADD PUSH1 0x20 ADD MLOAD PUSH1 0x1 PUSH1 0x1 PUSH1 0xF8 SHL SUB NOT AND DUP3 PUSH2 0x632 DUP4 PUSH1 0x2 PUSH2 0x109E JUMP JUMPDEST PUSH2 0x63D SWAP1 PUSH1 0x2 PUSH2 0x108B JUMP JUMPDEST DUP2 MLOAD DUP2 LT PUSH2 0x64D JUMPI PUSH2 0x64D PUSH2 0x105F JUMP JUMPDEST PUSH1 0x20 ADD ADD SWAP1 PUSH1 0x1 PUSH1 0x1 PUSH1 0xF8 SHL SUB NOT AND SWAP1 DUP2 PUSH1 0x0 BYTE SWAP1 MSTORE8 POP DUP3 DUP5 PUSH2 0x671 DUP4 PUSH1 0xC PUSH2 0x108B JUMP JUMPDEST PUSH1 0x20 DUP2 LT PUSH2 0x681 JUMPI PUSH2 0x681 PUSH2 0x105F JUMP JUMPDEST DUP3 MLOAD SWAP2 SWAP1 BYTE PUSH1 0xF AND SWAP1 DUP2 LT PUSH2 0x698 JUMPI PUSH2 0x698 PUSH2 0x105F JUMP JUMPDEST ADD PUSH1 0x20 ADD MLOAD PUSH1 0x1 PUSH1 0x1 PUSH1 0xF8 SHL SUB NOT AND DUP3 PUSH2 0x6B3 DUP4 PUSH1 0x2 PUSH2 0x109E JUMP JUMPDEST PUSH2 0x6BE SWAP1 PUSH1 0x3 PUSH2 0x108B JUMP JUMPDEST DUP2 MLOAD DUP2 LT PUSH2 0x6CE JUMPI PUSH2 0x6CE PUSH2 0x105F JUMP JUMPDEST PUSH1 0x20 ADD ADD SWAP1 PUSH1 0x1 PUSH1 0x1 PUSH1 0xF8 SHL SUB NOT AND SWAP1 DUP2 PUSH1 0x0 BYTE SWAP1 MSTORE8 POP DUP1 PUSH2 0x6EF DUP2 PUSH2 0x10B5 JUMP JUMPDEST SWAP2 POP POP PUSH2 0x5C9 JUMP JUMPDEST POP SWAP5 SWAP4 POP POP POP POP JUMP JUMPDEST DUP1 MLOAD PUSH1 0x0 SWAP1 ISZERO PUSH2 0x71A JUMPI PUSH2 0x713 DUP3 PUSH2 0x806 JUMP JUMPDEST SWAP1 POP PUSH2 0x7BE JUMP JUMPDEST DUP3 MLOAD ISZERO PUSH2 0x7BA JUMPI PUSH1 0x40 MLOAD PUSH4 0xEFA74F1F PUSH1 0xE0 SHL DUP2 MSTORE PUSH1 0x0 SWAP1 PUSH1 0x1 PUSH1 0x1 PUSH1 0xA0 SHL SUB PUSH32 0x0 AND SWAP1 PUSH4 0xEFA74F1F SWAP1 PUSH2 0x770 SWAP1 DUP8 SWAP1 PUSH1 0x4 ADD PUSH2 0xE68 JUMP JUMPDEST PUSH1 0x20 PUSH1 0x40 MLOAD DUP1 DUP4 SUB DUP2 DUP7 GAS STATICCALL ISZERO DUP1 ISZERO PUSH2 0x78D JUMPI RETURNDATASIZE PUSH1 0x0 DUP1 RETURNDATACOPY RETURNDATASIZE PUSH1 0x0 REVERT JUMPDEST POP POP POP POP PUSH1 0x40 MLOAD RETURNDATASIZE PUSH1 0x1F NOT PUSH1 0x1F DUP3 ADD AND DUP3 ADD DUP1 PUSH1 0x40 MSTORE POP DUP2 ADD SWAP1 PUSH2 0x7B1 SWAP2 SWAP1 PUSH2 0x10CE JUMP JUMPDEST SWAP2 POP PUSH2 0x7BE SWAP1 POP JUMP JUMPDEST POP PUSH1 0x0 JUMPDEST SWAP3 SWAP2 POP POP JUMP JUMPDEST PUSH1 0x60 PUSH2 0x7CF DUP6 PUSH2 0x515 JUMP JUMPDEST PUSH2 0x7D8 DUP6 PUSH2 0x9BD JUMP JUMPDEST DUP5 DUP5 PUSH1 0x40 MLOAD PUSH1 0x20 ADD PUSH2 0x7ED SWAP5 SWAP4 SWAP3 SWAP2 SWAP1 PUSH2 0x10EB JUMP JUMPDEST PUSH1 0x40 MLOAD PUSH1 0x20 DUP2 DUP4 SUB SUB DUP2 MSTORE SWAP1 PUSH1 0x40 MSTORE SWAP1 POP SWAP5 SWAP4 POP POP POP POP JUMP JUMPDEST DUP1 MLOAD PUSH1 0x0 SWAP1 DUP3 SWAP1 PUSH1 0x2A EQ PUSH2 0x855 JUMPI PUSH1 0x40 MLOAD PUSH3 0x461BCD PUSH1 0xE5 SHL DUP2 MSTORE PUSH1 0x20 PUSH1 0x4 DUP3 ADD MSTORE PUSH1 0x16 PUSH1 0x24 DUP3 ADD MSTORE PUSH22 0x92DCECC2D8D2C840C2C8C8E4CAE6E640D8CADCCEE8D PUSH1 0x53 SHL PUSH1 0x44 DUP3 ADD MSTORE PUSH1 0x64 ADD PUSH2 0x25D JUMP JUMPDEST DUP1 PUSH1 0x0 DUP2 MLOAD DUP2 LT PUSH2 0x868 JUMPI PUSH2 0x868 PUSH2 0x105F JUMP JUMPDEST PUSH1 0x20 SWAP2 ADD ADD MLOAD PUSH1 0x1 PUSH1 0x1 PUSH1 0xF8 SHL SUB NOT AND PUSH1 0x3 PUSH1 0xFC SHL EQ DUP1 ISZERO PUSH2 0x8AF JUMPI POP DUP1 PUSH1 0x1 DUP2 MLOAD DUP2 LT PUSH2 0x898 JUMPI PUSH2 0x898 PUSH2 0x105F JUMP JUMPDEST PUSH1 0x20 SWAP2 ADD ADD MLOAD PUSH1 0x1 PUSH1 0x1 PUSH1 0xF8 SHL SUB NOT AND PUSH1 0xF PUSH1 0xFB SHL EQ JUMPDEST PUSH2 0x8FB JUMPI PUSH1 0x40 MLOAD PUSH3 0x461BCD PUSH1 0xE5 SHL DUP2 MSTORE PUSH1 0x20 PUSH1 0x4 DUP3 ADD MSTORE PUSH1 0x1A PUSH1 0x24 DUP3 ADD MSTORE PUSH32 0x41646472657373206D7573742073746172742077697468203078000000000000 PUSH1 0x44 DUP3 ADD MSTORE PUSH1 0x64 ADD PUSH2 0x25D JUMP JUMPDEST POP PUSH20 0x1234567890123456789012345678901234567890 SWAP3 SWAP2 POP POP JUMP JUMPDEST PUSH1 0x0 PUSH2 0x922 DUP6 PUSH2 0x806 JUMP JUMPDEST PUSH1 0x40 MLOAD PUSH4 0x9E7BA2D3 PUSH1 0xE0 SHL DUP2 MSTORE SWAP1 SWAP2 POP PUSH8 0xDE0B6B3A7640000 SWAP1 PUSH1 0x1 PUSH1 0x1 PUSH1 0xA0 SHL SUB PUSH32 0x0 AND SWAP1 PUSH4 0x9E7BA2D3 SWAP1 CALLVALUE SWAP1 PUSH2 0x983 SWAP1 DUP7 SWAP1 DUP7 SWAP1 DUP11 SWAP1 DUP11 SWAP1 PUSH1 0x4 ADD PUSH2 0x11A9 JUMP JUMPDEST PUSH1 0x0 PUSH1 0x40 MLOAD DUP1 DUP4 SUB DUP2 DUP6 DUP9 DUP1 EXTCODESIZE ISZERO DUP1 ISZERO PUSH2 0x99C JUMPI PUSH1 0x0 DUP1 REVERT JUMPDEST POP GAS CALL ISZERO DUP1 ISZERO PUSH2 0x9B0 JUMPI RETURNDATASIZE PUSH1 0x0 DUP1 RETURNDATACOPY RETURNDATASIZE PUSH1 0x0 REVERT JUMPDEST POP POP POP POP POP POP POP POP POP POP POP JUMP JUMPDEST PUSH1 0x60 DUP2 PUSH1 0x0 SUB PUSH2 0x9E4 JUMPI POP POP PUSH1 0x40 DUP1 MLOAD DUP1 DUP3 ADD SWAP1 SWAP2 MSTORE PUSH1 0x1 DUP2 MSTORE PUSH1 0x3 PUSH1 0xFC SHL PUSH1 0x20 DUP3 ADD MSTORE SWAP1 JUMP JUMPDEST DUP2 PUSH1 0x0 JUMPDEST DUP2 ISZERO PUSH2 0xA0E JUMPI DUP1 PUSH2 0x9F8 DUP2 PUSH2 0x10B5 JUMP JUMPDEST SWAP2 POP PUSH2 0xA07 SWAP1 POP PUSH1 0xA DUP4 PUSH2 0x1203 JUMP JUMPDEST SWAP2 POP PUSH2 0x9E8 JUMP JUMPDEST PUSH1 0x0 DUP2 PUSH8 0xFFFFFFFFFFFFFFFF DUP2 GT ISZERO PUSH2 0xA29 JUMPI PUSH2 0xA29 PUSH2 0xB95 JUMP JUMPDEST PUSH1 0x40 MLOAD SWAP1 DUP1 DUP3 MSTORE DUP1 PUSH1 0x1F ADD PUSH1 0x1F NOT AND PUSH1 0x20 ADD DUP3 ADD PUSH1 0x40 MSTORE DUP1 ISZERO PUSH2 0xA53 JUMPI PUSH1 0x20 DUP3 ADD DUP2 DUP1 CALLDATASIZE DUP4 CALLDATACOPY ADD SWAP1 POP JUMPDEST POP SWAP1 POP JUMPDEST DUP5 ISZERO PUSH2 0xABE JUMPI PUSH2 0xA68 PUSH1 0x1 DUP4 PUSH2 0x1217 JUMP JUMPDEST SWAP2 POP PUSH2 0xA75 PUSH1 0xA DUP7 PUSH2 0x122A JUMP JUMPDEST PUSH2 0xA80 SWAP1 PUSH1 0x30 PUSH2 0x108B JUMP JUMPDEST PUSH1 0xF8 SHL DUP2 DUP4 DUP2 MLOAD DUP2 LT PUSH2 0xA95 JUMPI PUSH2 0xA95 PUSH2 0x105F JUMP JUMPDEST PUSH1 0x20 ADD ADD SWAP1 PUSH1 0x1 PUSH1 0x1 PUSH1 0xF8 SHL SUB NOT AND SWAP1 DUP2 PUSH1 0x0 BYTE SWAP1 MSTORE8 POP PUSH2 0xAB7 PUSH1 0xA DUP7 PUSH2 0x1203 JUMP JUMPDEST SWAP5 POP PUSH2 0xA57 JUMP JUMPDEST SWAP5 SWAP4 POP POP POP POP JUMP JUMPDEST PUSH1 0x0 DUP2 DUP2 DUP1 JUMPDEST DUP3 MLOAD DUP2 LT ISZERO PUSH2 0xB8D JUMPI PUSH1 0x0 DUP4 DUP3 DUP2 MLOAD DUP2 LT PUSH2 0xAE9 JUMPI PUSH2 0xAE9 PUSH2 0x105F JUMP JUMPDEST ADD PUSH1 0x20 ADD MLOAD PUSH1 0xF8 SHR SWAP1 POP PUSH1 0x30 DUP2 LT DUP1 ISZERO SWAP1 PUSH2 0xB08 JUMPI POP PUSH1 0x39 DUP2 PUSH1 0xFF AND GT ISZERO JUMPDEST PUSH2 0xB54 JUMPI PUSH1 0x40 MLOAD PUSH3 0x461BCD PUSH1 0xE5 SHL DUP2 MSTORE PUSH1 0x20 PUSH1 0x4 DUP3 ADD MSTORE PUSH1 0x18 PUSH1 0x24 DUP3 ADD MSTORE PUSH32 0x496E76616C6964206E756D626572206368617261637465720000000000000000 PUSH1 0x44 DUP3 ADD MSTORE PUSH1 0x64 ADD PUSH2 0x25D JUMP JUMPDEST PUSH2 0xB5F PUSH1 0x30 DUP3 PUSH2 0x123E JUMP JUMPDEST PUSH1 0xFF AND PUSH2 0xB6D DUP5 PUSH1 0xA PUSH2 0x109E JUMP JUMPDEST PUSH2 0xB77 SWAP2 SWAP1 PUSH2 0x108B JUMP JUMPDEST SWAP3 POP POP DUP1 DUP1 PUSH2 0xB85 SWAP1 PUSH2 0x10B5 JUMP JUMPDEST SWAP2 POP POP PUSH2 0xACC JUMP JUMPDEST POP SWAP4 SWAP3 POP POP POP JUMP JUMPDEST PUSH4 0x4E487B71 PUSH1 0xE0 SHL PUSH1 0x0 MSTORE PUSH1 0x41 PUSH1 0x4 MSTORE PUSH1 0x24 PUSH1 0x0 REVERT JUMPDEST PUSH1 0x40 MLOAD PUSH1 0xC0 DUP2 ADD PUSH8 0xFFFFFFFFFFFFFFFF DUP2 GT DUP3 DUP3 LT OR ISZERO PUSH2 0xBCE JUMPI PUSH2 0xBCE PUSH2 0xB95 JUMP JUMPDEST PUSH1 0x40 MSTORE SWAP1 JUMP JUMPDEST PUSH1 0x0 DUP3 PUSH1 0x1F DUP4 ADD SLT PUSH2 0xBE5 JUMPI PUSH1 0x0 DUP1 REVERT JUMPDEST DUP2 CALLDATALOAD PUSH8 0xFFFFFFFFFFFFFFFF DUP1 DUP3 GT ISZERO PUSH2 0xC00 JUMPI PUSH2 0xC00 PUSH2 0xB95 JUMP JUMPDEST PUSH1 0x40 MLOAD PUSH1 0x1F DUP4 ADD PUSH1 0x1F NOT SWAP1 DUP2 AND PUSH1 0x3F ADD AND DUP2 ADD SWAP1 DUP3 DUP3 GT DUP2 DUP4 LT OR ISZERO PUSH2 0xC28 JUMPI PUSH2 0xC28 PUSH2 0xB95 JUMP JUMPDEST DUP2 PUSH1 0x40 MSTORE DUP4 DUP2 MSTORE DUP7 PUSH1 0x20 DUP6 DUP9 ADD ADD GT ISZERO PUSH2 0xC41 JUMPI PUSH1 0x0 DUP1 REVERT JUMPDEST DUP4 PUSH1 0x20 DUP8 ADD PUSH1 0x20 DUP4 ADD CALLDATACOPY PUSH1 0x0 PUSH1 0x20 DUP6 DUP4 ADD ADD MSTORE DUP1 SWAP5 POP POP POP POP POP SWAP3 SWAP2 POP POP JUMP JUMPDEST PUSH1 0x0 PUSH1 0x20 DUP3 DUP5 SUB SLT ISZERO PUSH2 0xC73 JUMPI PUSH1 0x0 DUP1 REVERT JUMPDEST DUP2 CALLDATALOAD PUSH8 0xFFFFFFFFFFFFFFFF DUP2 GT ISZERO PUSH2 0xC8A JUMPI PUSH1 0x0 DUP1 REVERT JUMPDEST PUSH2 0xABE DUP5 DUP3 DUP6 ADD PUSH2 0xBD4 JUMP JUMPDEST PUSH1 0x0 DUP1 PUSH1 0x40 DUP4 DUP6 SUB SLT ISZERO PUSH2 0xCA9 JUMPI PUSH1 0x0 DUP1 REVERT JUMPDEST DUP3 CALLDATALOAD PUSH8 0xFFFFFFFFFFFFFFFF DUP1 DUP3 GT ISZERO PUSH2 0xCC1 JUMPI PUSH1 0x0 DUP1 REVERT JUMPDEST SWAP1 DUP5 ADD SWAP1 PUSH1 0xC0 DUP3 DUP8 SUB SLT ISZERO PUSH2 0xCD5 JUMPI PUSH1 0x0 DUP1 REVERT JUMPDEST PUSH2 0xCDD PUSH2 0xBAB JUMP JUMPDEST DUP3 CALLDATALOAD DUP3 DUP2 GT ISZERO PUSH2 0xCEC JUMPI PUSH1 0x0 DUP1 REVERT JUMPDEST PUSH2 0xCF8 DUP9 DUP3 DUP7 ADD PUSH2 0xBD4 JUMP JUMPDEST DUP3 MSTORE POP PUSH1 0x20 DUP4 ADD CALLDATALOAD DUP3 DUP2 GT ISZERO PUSH2 0xD0D JUMPI PUSH1 0x0 DUP1 REVERT JUMPDEST PUSH2 0xD19 DUP9 DUP3 DUP7 ADD PUSH2 0xBD4 JUMP JUMPDEST PUSH1 0x20 DUP4 ADD MSTORE POP PUSH1 0x40 DUP4 ADD CALLDATALOAD DUP3 DUP2 GT ISZERO PUSH2 0xD31 JUMPI PUSH1 0x0 DUP1 REVERT JUMPDEST PUSH2 0xD3D DUP9 DUP3 DUP7 ADD PUSH2 0xBD4 JUMP JUMPDEST PUSH1 0x40 DUP4 ADD MSTORE POP PUSH1 0x60 DUP4 ADD CALLDATALOAD DUP3 DUP2 GT ISZERO PUSH2 0xD55 JUMPI PUSH1 0x0 DUP1 REVERT JUMPDEST PUSH2 0xD61 DUP9 DUP3 DUP7 ADD PUSH2 0xBD4 JUMP JUMPDEST PUSH1 0x60 DUP4 ADD MSTORE POP PUSH1 0x80 DUP4 ADD CALLDATALOAD DUP3 DUP2 GT ISZERO PUSH2 0xD79 JUMPI PUSH1 0x0 DUP1 REVERT JUMPDEST PUSH2 0xD85 DUP9 DUP3 DUP7 ADD PUSH2 0xBD4 JUMP JUMPDEST PUSH1 0x80 DUP4 ADD MSTORE POP PUSH1 0xA0 DUP4 ADD CALLDATALOAD DUP3 DUP2 GT ISZERO PUSH2 0xD9D JUMPI PUSH1 0x0 DUP1 REVERT JUMPDEST PUSH2 0xDA9 DUP9 DUP3 DUP7 ADD PUSH2 0xBD4 JUMP JUMPDEST PUSH1 0xA0 DUP4 ADD MSTORE POP SWAP4 POP PUSH1 0x20 DUP6 ADD CALLDATALOAD SWAP2 POP DUP1 DUP3 GT ISZERO PUSH2 0xDC5 JUMPI PUSH1 0x0 DUP1 REVERT JUMPDEST POP PUSH2 0xDD2 DUP6 DUP3 DUP7 ADD PUSH2 0xBD4 JUMP JUMPDEST SWAP2 POP POP SWAP3 POP SWAP3 SWAP1 POP JUMP JUMPDEST PUSH1 0x1 PUSH1 0x1 PUSH1 0xA0 SHL SUB DUP2 AND DUP2 EQ PUSH2 0xDF1 JUMPI PUSH1 0x0 DUP1 REVERT JUMPDEST POP JUMP JUMPDEST PUSH1 0x0 PUSH1 0x20 DUP3 DUP5 SUB SLT ISZERO PUSH2 0xE06 JUMPI PUSH1 0x0 DUP1 REVERT JUMPDEST DUP2 CALLDATALOAD PUSH2 0xE11 DUP2 PUSH2 0xDDC JUMP JUMPDEST SWAP4 SWAP3 POP POP POP JUMP JUMPDEST PUSH1 0x0 JUMPDEST DUP4 DUP2 LT ISZERO PUSH2 0xE33 JUMPI DUP2 DUP2 ADD MLOAD DUP4 DUP3 ADD MSTORE PUSH1 0x20 ADD PUSH2 0xE1B JUMP JUMPDEST POP POP PUSH1 0x0 SWAP2 ADD MSTORE JUMP JUMPDEST PUSH1 0x0 DUP2 MLOAD DUP1 DUP5 MSTORE PUSH2 0xE54 DUP2 PUSH1 0x20 DUP7 ADD PUSH1 0x20 DUP7 ADD PUSH2 0xE18 JUMP JUMPDEST PUSH1 0x1F ADD PUSH1 0x1F NOT AND SWAP3 SWAP1 SWAP3 ADD PUSH1 0x20 ADD SWAP3 SWAP2 POP POP JUMP JUMPDEST PUSH1 0x20 DUP2 MSTORE PUSH1 0x0 PUSH2 0xE11 PUSH1 0x20 DUP4 ADD DUP5 PUSH2 0xE3C JUMP JUMPDEST PUSH1 0x0 DUP1 PUSH1 0x40 DUP4 DUP6 SUB SLT ISZERO PUSH2 0xE8E JUMPI PUSH1 0x0 DUP1 REVERT JUMPDEST DUP3 CALLDATALOAD PUSH8 0xFFFFFFFFFFFFFFFF DUP1 DUP3 GT ISZERO PUSH2 0xEA6 JUMPI PUSH1 0x0 DUP1 REVERT JUMPDEST PUSH2 0xEB2 DUP7 DUP4 DUP8 ADD PUSH2 0xBD4 JUMP JUMPDEST SWAP4 POP PUSH1 0x20 DUP6 ADD CALLDATALOAD SWAP2 POP DUP1 DUP3 GT ISZERO PUSH2 0xDC5 JUMPI PUSH1 0x0 DUP1 REVERT JUMPDEST PUSH1 0x0 DUP1 PUSH1 0x0 DUP1 PUSH1 0x80 DUP6 DUP8 SUB SLT ISZERO PUSH2 0xEDE JUMPI PUSH1 0x0 DUP1 REVERT JUMPDEST DUP5 CALLDATALOAD PUSH2 0xEE9 DUP2 PUSH2 0xDDC JUMP JUMPDEST SWAP4 POP PUSH1 0x20 DUP6 ADD CALLDATALOAD SWAP3 POP PUSH1 0x40 DUP6 ADD CALLDATALOAD PUSH8 0xFFFFFFFFFFFFFFFF DUP1 DUP3 GT ISZERO PUSH2 0xF0D JUMPI PUSH1 0x0 DUP1 REVERT JUMPDEST PUSH2 0xF19 DUP9 DUP4 DUP10 ADD PUSH2 0xBD4 JUMP JUMPDEST SWAP4 POP PUSH1 0x60 DUP8 ADD CALLDATALOAD SWAP2 POP DUP1 DUP3 GT ISZERO PUSH2 0xF2F JUMPI PUSH1 0x0 DUP1 REVERT JUMPDEST POP PUSH2 0xF3C DUP8 DUP3 DUP9 ADD PUSH2 0xBD4 JUMP JUMPDEST SWAP2 POP POP SWAP3 SWAP6 SWAP2 SWAP5 POP SWAP3 POP JUMP JUMPDEST PUSH1 0x0 DUP1 PUSH1 0x0 DUP1 PUSH1 0x80 DUP6 DUP8 SUB SLT ISZERO PUSH2 0xF5E JUMPI PUSH1 0x0 DUP1 REVERT JUMPDEST DUP5 CALLDATALOAD PUSH8 0xFFFFFFFFFFFFFFFF DUP1 DUP3 GT ISZERO PUSH2 0xF76 JUMPI PUSH1 0x0 DUP1 REVERT JUMPDEST PUSH2 0xF82 DUP9 DUP4 DUP10 ADD PUSH2 0xBD4 JUMP JUMPDEST SWAP6 POP PUSH1 0x20 DUP8 ADD CALLDATALOAD SWAP2 POP DUP1 DUP3 GT ISZERO PUSH2 0xF98 JUMPI PUSH1 0x0 DUP1 REVERT JUMPDEST PUSH2 0xFA4 DUP9 DUP4 DUP10 ADD PUSH2 0xBD4 JUMP JUMPDEST SWAP5 POP PUSH1 0x40 DUP8 ADD CALLDATALOAD SWAP2 POP DUP1 DUP3 GT ISZERO PUSH2 0xF0D JUMPI PUSH1 0x0 DUP1 REVERT JUMPDEST PUSH1 0x0 PUSH1 0x20 DUP3 DUP5 SUB SLT ISZERO PUSH2 0xFCC JUMPI PUSH1 0x0 DUP1 REVERT JUMPDEST POP CALLDATALOAD SWAP2 SWAP1 POP JUMP JUMPDEST PUSH1 0x1 PUSH1 0x1 PUSH1 0xA0 SHL SUB DUP6 DUP2 AND DUP3 MSTORE DUP5 AND PUSH1 0x20 DUP3 ADD MSTORE PUSH1 0x40 DUP2 ADD DUP4 SWAP1 MSTORE PUSH1 0x80 PUSH1 0x60 DUP3 ADD DUP2 SWAP1 MSTORE PUSH1 0x0 SWAP1 PUSH2 0x1006 SWAP1 DUP4 ADD DUP5 PUSH2 0xE3C JUMP JUMPDEST SWAP7 SWAP6 POP POP POP POP POP POP JUMP JUMPDEST PUSH1 0xA0 DUP2 MSTORE PUSH1 0x0 PUSH2 0x1023 PUSH1 0xA0 DUP4 ADD DUP9 PUSH2 0xE3C JUMP JUMPDEST PUSH1 0x1 PUSH1 0x1 PUSH1 0xA0 SHL SUB DUP8 DUP2 AND PUSH1 0x20 DUP6 ADD MSTORE PUSH1 0x40 DUP5 ADD DUP8 SWAP1 MSTORE DUP6 AND PUSH1 0x60 DUP5 ADD MSTORE DUP3 DUP2 SUB PUSH1 0x80 DUP5 ADD MSTORE PUSH2 0x1053 DUP2 DUP6 PUSH2 0xE3C JUMP JUMPDEST SWAP9 SWAP8 POP POP POP POP POP POP POP POP JUMP JUMPDEST PUSH4 0x4E487B71 PUSH1 0xE0 SHL PUSH1 0x0 MSTORE PUSH1 0x32 PUSH1 0x4 MSTORE PUSH1 0x24 PUSH1 0x0 REVERT JUMPDEST PUSH4 0x4E487B71 PUSH1 0xE0 SHL PUSH1 0x0 MSTORE PUSH1 0x11 PUSH1 0x4 MSTORE PUSH1 0x24 PUSH1 0x0 REVERT JUMPDEST DUP1 DUP3 ADD DUP1 DUP3 GT ISZERO PUSH2 0x7BE JUMPI PUSH2 0x7BE PUSH2 0x1075 JUMP JUMPDEST DUP1 DUP3 MUL DUP2 ISZERO DUP3 DUP3 DIV DUP5 EQ OR PUSH2 0x7BE JUMPI PUSH2 0x7BE PUSH2 0x1075 JUMP JUMPDEST PUSH1 0x0 PUSH1 0x1 DUP3 ADD PUSH2 0x10C7 JUMPI PUSH2 0x10C7 PUSH2 0x1075 JUMP JUMPDEST POP PUSH1 0x1 ADD SWAP1 JUMP JUMPDEST PUSH1 0x0 PUSH1 0x20 DUP3 DUP5 SUB SLT ISZERO PUSH2 0x10E0 JUMPI PUSH1 0x0 DUP1 REVERT JUMPDEST DUP2 MLOAD PUSH2 0xE11 DUP2 PUSH2 0xDDC JUMP JUMPDEST PUSH32 0x68747470733A2F2F7061792E6D6F6E61642E6C696E6B2F73656E643F746F3D00 DUP2 MSTORE PUSH1 0x0 DUP6 MLOAD PUSH2 0x1123 DUP2 PUSH1 0x1F DUP6 ADD PUSH1 0x20 DUP11 ADD PUSH2 0xE18 JUMP JUMPDEST PUSH8 0x26616D6F756E743D PUSH1 0xC0 SHL PUSH1 0x1F SWAP2 DUP5 ADD SWAP2 DUP3 ADD MSTORE DUP6 MLOAD PUSH2 0x114B DUP2 PUSH1 0x27 DUP5 ADD PUSH1 0x20 DUP11 ADD PUSH2 0xE18 JUMP JUMPDEST PUSH7 0x26746F6B656E3D PUSH1 0xC8 SHL PUSH1 0x27 SWAP3 SWAP1 SWAP2 ADD SWAP2 DUP3 ADD MSTORE DUP5 MLOAD PUSH2 0x1173 DUP2 PUSH1 0x2E DUP5 ADD PUSH1 0x20 DUP10 ADD PUSH2 0xE18 JUMP JUMPDEST PUSH7 0x266C6162656C3D PUSH1 0xC8 SHL PUSH1 0x2E SWAP3 SWAP1 SWAP2 ADD SWAP2 DUP3 ADD MSTORE DUP4 MLOAD PUSH2 0x119B DUP2 PUSH1 0x35 DUP5 ADD PUSH1 0x20 DUP9 ADD PUSH2 0xE18 JUMP JUMPDEST ADD PUSH1 0x35 ADD SWAP7 SWAP6 POP POP POP POP POP POP JUMP JUMPDEST PUSH1 0x1 DUP1 PUSH1 0xA0 SHL SUB DUP6 AND DUP2 MSTORE DUP4 PUSH1 0x20 DUP3 ADD MSTORE PUSH1 0x80 PUSH1 0x40 DUP3 ADD MSTORE PUSH1 0x0 PUSH2 0x11D0 PUSH1 0x80 DUP4 ADD DUP6 PUSH2 0xE3C JUMP JUMPDEST DUP3 DUP2 SUB PUSH1 0x60 DUP5 ADD MSTORE PUSH2 0x11E2 DUP2 DUP6 PUSH2 0xE3C JUMP JUMPDEST SWAP8 SWAP7 POP POP POP POP POP POP POP JUMP JUMPDEST PUSH4 0x4E487B71 PUSH1 0xE0 SHL PUSH1 0x0 MSTORE PUSH1 0x12 PUSH1 0x4 MSTORE PUSH1 0x24 PUSH1 0x0 REVERT JUMPDEST PUSH1 0x0 DUP3 PUSH2 0x1212 JUMPI PUSH2 0x1212 PUSH2 0x11ED JUMP JUMPDEST POP DIV SWAP1 JUMP JUMPDEST DUP2 DUP2 SUB DUP2 DUP2 GT ISZERO PUSH2 0x7BE JUMPI PUSH2 0x7BE PUSH2 0x1075 JUMP JUMPDEST PUSH1 0x0 DUP3 PUSH2 0x1239 JUMPI PUSH2 0x1239 PUSH2 0x11ED JUMP JUMPDEST POP MOD SWAP1 JUMP JUMPDEST PUSH1 0xFF DUP3 DUP2 AND DUP3 DUP3 AND SUB SWAP1 DUP2 GT ISZERO PUSH2 0x7BE JUMPI PUSH2 0x7BE PUSH2 0x1075 JUMP INVALID LOG2 PUSH5 0x6970667358 0x22 SLT KECCAK256 0x49 LOG2 MSTORE8 PUSH13 0xA091BB2141B3C66D9BBB6251E7 GASPRICE LOG1 0xC1 0xB6 CALL DUP16 0xB0 PUSH23 0x7744BF782778CA64736F6C634300081300330000000000 "},"methodIdentifiers":{"addressToString(address)":"5e57966d","buildMonadPayURL(address,uint256,string,string)":"a87f2170","determineTokenAddress(string,string)":"6a324ca2","parseAddress(string)":"c6ce059d","parseAmount(string)":"40762578","parseUint(string)":"fa91454d","payBySymbol(string,string,string,string)":"e373d327","paymentSystem()":"3596f3d6","processURLPayment((string,string,string,string,string,string),string)":"575873e5","uintToString(uint256)":"e9395679"}}}}}