{
  "_format": "hh-sol-artifact-1",
  "contractName": "ReentrancyAttacker",
  "sourceName": "contracts/test/ReentrancyAttacker.sol",
  "abi": [
    {
      "inputs": [
        {
          "internalType": "address",
          "name": "_paymentSystem",
          "type": "address"
        }
      ],
      "stateMutability": "nonpayable",
      "type": "constructor"
    },
    {
      "inputs": [
        {
          "internalType": "address",
          "name": "_target",
          "type": "address"
        }
      ],
      "name": "attack",
      "outputs": [],
      "stateMutability": "payable",
      "type": "function"
    },
    {
      "inputs": [],
      "name": "attackCount",
      "outputs": [
        {
          "internalType": "uint256",
          "name": "",
          "type": "uint256"
        }
      ],
      "stateMutability": "view",
      "type": "function"
    },
    {
      "inputs": [],
      "name": "attacking",
      "outputs": [
        {
          "internalType": "bool",
          "name": "",
          "type": "bool"
        }
      ],
      "stateMutability": "view",
      "type": "function"
    },
    {
      "inputs": [],
      "name": "paymentSystem",
      "outputs": [
        {
          "internalType": "contract MonadPaymentSystem",
          "name": "",
          "type": "address"
        }
      ],
      "stateMutability": "view",
      "type": "function"
    },
    {
      "inputs": [],
      "name": "stopAttack",
      "outputs": [],
      "stateMutability": "nonpayable",
      "type": "function"
    },
    {
      "inputs": [],
      "name": "target",
      "outputs": [
        {
          "internalType": "address",
          "name": "",
          "type": "address"
        }
      ],
      "stateMutability": "view",
      "type": "function"
    },
    {
      "inputs": [],
      "name": "withdraw",
      "outputs": [],
      "stateMutability": "nonpayable",
      "type": "function"
    },
    {
      "stateMutability": "payable",
      "type": "receive"
    }
  ],
  "bytecode": "0x60a060405234801561001057600080fd5b506040516104ec3803806104ec83398101604081905261002f91610040565b6001600160a01b0316608052610070565b60006020828403121561005257600080fd5b81516001600160a01b038116811461006957600080fd5b9392505050565b6080516104546100986000396000818160b1015281816101a4015261034301526104546000f3fe6080604052600436106100745760003560e01c8063407c28211161004e578063407c282114610222578063a3844f0614610246578063d018db3e14610262578063d4b839921461027557600080fd5b80633596f3d6146101925780633c0bbcd9146101e35780633ccfd60b1461020d57600080fd5b3661018d5760025460ff16801561008d57506003600154105b1561018b57600180549060006100a2836103a5565b90915550506001600160a01b037f000000000000000000000000000000000000000000000000000000000000000016631984f1216100e16002476103cc565b600080546001600160a01b0316906100fa6002476103cc565b6040516001600160e01b031960e087901b1681526001600160a01b03938416600482015292909116602483015260448201526080606482015260126084820152711c99595b9d1c985b98de48185d1d195b5c1d60721b60a482015260c4016000604051808303818588803b15801561017157600080fd5b505af1158015610185573d6000803e3d6000fd5b50505050505b005b600080fd5b34801561019e57600080fd5b506101c67f000000000000000000000000000000000000000000000000000000000000000081565b6040516001600160a01b0390911681526020015b60405180910390f35b3480156101ef57600080fd5b506002546101fd9060ff1681565b60405190151581526020016101da565b34801561021957600080fd5b5061018b610295565b34801561022e57600080fd5b5061023860015481565b6040519081526020016101da565b34801561025257600080fd5b5061018b6002805460ff19169055565b61018b6102703660046103ee565b6102c4565b34801561028157600080fd5b506000546101c6906001600160a01b031681565b60405133904780156108fc02916000818181858888f193505050501580156102c1573d6000803e3d6000fd5b50565b600080546001600160a01b0319166001600160a01b038381169190911782556002805460ff19166001908117909155829055604051631984f12160e01b8152306004820152602481019290925234604483018190526080606484015260116084840152707265656e7472616e63792061747461636b60781b60a48401527f000000000000000000000000000000000000000000000000000000000000000090911691631984f121919060c4016000604051808303818588803b15801561038957600080fd5b505af115801561039d573d6000803e3d6000fd5b505050505050565b6000600182016103c557634e487b7160e01b600052601160045260246000fd5b5060010190565b6000826103e957634e487b7160e01b600052601260045260246000fd5b500490565b60006020828403121561040057600080fd5b81356001600160a01b038116811461041757600080fd5b939250505056fea264697066735822122074ce9b1de79493860f0affad1e39a96dd5b99bbc2e3686c2c03660404362918b64736f6c63430008130033",
  "linkReferences": {},
  "deployedLinkReferences": {}
}