{
  "_format": "hh-sol-artifact-1",
  "contractName": "MonadPaymentSystem",
  "sourceName": "contracts/MonadPaymentSystem.sol",
  "abi": [
    {
      "inputs": [
        {
          "internalType": "address",
          "name": "_feeRecipient",
          "type": "address"
        }
      ],
      "stateMutability": "nonpayable",
      "type": "constructor"
    },
    {
      "anonymous": false,
      "inputs": [
        {
          "indexed": true,
          "internalType": "address",
          "name": "payer",
          "type": "address"
        },
        {
          "indexed": false,
          "internalType": "uint256",
          "name": "totalRecipients",
          "type": "uint256"
        },
        {
          "indexed": false,
          "internalType": "uint256",
          "name": "totalAmount",
          "type": "uint256"
        }
      ],
      "name": "BatchPaymentExecuted",
      "type": "event"
    },
    {
      "anonymous": false,
      "inputs": [
        {
          "indexed": true,
          "internalType": "address",
          "name": "payer",
          "type": "address"
        },
        {
          "indexed": true,
          "internalType": "address",
          "name": "recipient",
          "type": "address"
        },
        {
          "indexed": false,
          "internalType": "address",
          "name": "token",
          "type": "address"
        },
        {
          "indexed": false,
          "internalType": "uint256",
          "name": "amount",
          "type": "uint256"
        },
        {
          "indexed": false,
          "internalType": "string",
          "name": "label",
          "type": "string"
        },
        {
          "indexed": false,
          "internalType": "string",
          "name": "deepLink",
          "type": "string"
        }
      ],
      "name": "DeepLinkPayment",
      "type": "event"
    },
    {
      "anonymous": false,
      "inputs": [
        {
          "indexed": false,
          "internalType": "address",
          "name": "oldRecipient",
          "type": "address"
        },
        {
          "indexed": false,
          "internalType": "address",
          "name": "newRecipient",
          "type": "address"
        }
      ],
      "name": "FeeRecipientUpdated",
      "type": "event"
    },
    {
      "anonymous": false,
      "inputs": [
        {
          "indexed": true,
          "internalType": "address",
          "name": "previousOwner",
          "type": "address"
        },
        {
          "indexed": true,
          "internalType": "address",
          "name": "newOwner",
          "type": "address"
        }
      ],
      "name": "OwnershipTransferred",
      "type": "event"
    },
    {
      "anonymous": false,
      "inputs": [
        {
          "indexed": false,
          "internalType": "address",
          "name": "account",
          "type": "address"
        }
      ],
      "name": "Paused",
      "type": "event"
    },
    {
      "anonymous": false,
      "inputs": [
        {
          "indexed": false,
          "internalType": "uint256",
          "name": "oldFee",
          "type": "uint256"
        },
        {
          "indexed": false,
          "internalType": "uint256",
          "name": "newFee",
          "type": "uint256"
        }
      ],
      "name": "PlatformFeeUpdated",
      "type": "event"
    },
    {
      "anonymous": false,
      "inputs": [
        {
          "indexed": true,
          "internalType": "address",
          "name": "payer",
          "type": "address"
        },
        {
          "indexed": true,
          "internalType": "address",
          "name": "recipient",
          "type": "address"
        },
        {
          "indexed": true,
          "internalType": "address",
          "name": "token",
          "type": "address"
        },
        {
          "indexed": false,
          "internalType": "uint256",
          "name": "amount",
          "type": "uint256"
        },
        {
          "indexed": false,
          "internalType": "string",
          "name": "label",
          "type": "string"
        },
        {
          "indexed": false,
          "internalType": "uint256",
          "name": "chainId",
          "type": "uint256"
        }
      ],
      "name": "SinglePayment",
      "type": "event"
    },
    {
      "anonymous": false,
      "inputs": [
        {
          "indexed": true,
          "internalType": "uint256",
          "name": "subscriptionId",
          "type": "uint256"
        }
      ],
      "name": "SubscriptionCancelled",
      "type": "event"
    },
    {
      "anonymous": false,
      "inputs": [
        {
          "indexed": true,
          "internalType": "uint256",
          "name": "subscriptionId",
          "type": "uint256"
        },
        {
          "indexed": true,
          "internalType": "address",
          "name": "subscriber",
          "type": "address"
        },
        {
          "indexed": true,
          "internalType": "address",
          "name": "recipient",
          "type": "address"
        },
        {
          "indexed": false,
          "internalType": "address",
          "name": "token",
          "type": "address"
        },
        {
          "indexed": false,
          "internalType": "uint256",
          "name": "amount",
          "type": "uint256"
        },
        {
          "indexed": false,
          "internalType": "uint256",
          "name": "interval",
          "type": "uint256"
        },
        {
          "indexed": false,
          "internalType": "string",
          "name": "label",
          "type": "string"
        }
      ],
      "name": "SubscriptionCreated",
      "type": "event"
    },
    {
      "anonymous": false,
      "inputs": [
        {
          "indexed": true,
          "internalType": "uint256",
          "name": "subscriptionId",
          "type": "uint256"
        },
        {
          "indexed": false,
          "internalType": "uint256",
          "name": "amount",
          "type": "uint256"
        },
        {
          "indexed": false,
          "internalType": "uint256",
          "name": "timestamp",
          "type": "uint256"
        }
      ],
      "name": "SubscriptionPayment",
      "type": "event"
    },
    {
      "anonymous": false,
      "inputs": [
        {
          "indexed": false,
          "internalType": "string",
          "name": "symbol",
          "type": "string"
        },
        {
          "indexed": false,
          "internalType": "address",
          "name": "tokenAddress",
          "type": "address"
        }
      ],
      "name": "TokenSymbolRegistered",
      "type": "event"
    },
    {
      "anonymous": false,
      "inputs": [
        {
          "indexed": false,
          "internalType": "address",
          "name": "account",
          "type": "address"
        }
      ],
      "name": "Unpaused",
      "type": "event"
    },
    {
      "anonymous": false,
      "inputs": [
        {
          "indexed": true,
          "internalType": "uint256",
          "name": "vaultId",
          "type": "uint256"
        },
        {
          "indexed": true,
          "internalType": "address",
          "name": "beneficiary",
          "type": "address"
        },
        {
          "indexed": false,
          "internalType": "uint256",
          "name": "amount",
          "type": "uint256"
        }
      ],
      "name": "VaultClaimed",
      "type": "event"
    },
    {
      "anonymous": false,
      "inputs": [
        {
          "indexed": true,
          "internalType": "uint256",
          "name": "vaultId",
          "type": "uint256"
        },
        {
          "indexed": true,
          "internalType": "address",
          "name": "owner",
          "type": "address"
        },
        {
          "indexed": true,
          "internalType": "address",
          "name": "beneficiary",
          "type": "address"
        },
        {
          "indexed": false,
          "internalType": "address",
          "name": "token",
          "type": "address"
        },
        {
          "indexed": false,
          "internalType": "uint256",
          "name": "amount",
          "type": "uint256"
        },
        {
          "indexed": false,
          "internalType": "uint256",
          "name": "unlockTime",
          "type": "uint256"
        },
        {
          "indexed": false,
          "internalType": "string",
          "name": "label",
          "type": "string"
        }
      ],
      "name": "VaultCreated",
      "type": "event"
    },
    {
      "inputs": [],
      "name": "NATIVE_TOKEN",
      "outputs": [
        {
          "internalType": "address",
          "name": "",
          "type": "address"
        }
      ],
      "stateMutability": "view",
      "type": "function"
    },
    {
      "inputs": [
        {
          "components": [
            {
              "internalType": "address",
              "name": "recipient",
              "type": "address"
            },
            {
              "internalType": "address",
              "name": "token",
              "type": "address"
            },
            {
              "internalType": "uint256",
              "name": "amount",
              "type": "uint256"
            },
            {
              "internalType": "string",
              "name": "label",
              "type": "string"
            }
          ],
          "internalType": "struct MonadPaymentSystem.BatchPayment[]",
          "name": "payments",
          "type": "tuple[]"
        }
      ],
      "name": "batchPayment",
      "outputs": [],
      "stateMutability": "payable",
      "type": "function"
    },
    {
      "inputs": [
        {
          "internalType": "uint256",
          "name": "vaultId",
          "type": "uint256"
        }
      ],
      "name": "canClaimVault",
      "outputs": [
        {
          "internalType": "bool",
          "name": "",
          "type": "bool"
        }
      ],
      "stateMutability": "view",
      "type": "function"
    },
    {
      "inputs": [
        {
          "internalType": "uint256",
          "name": "subscriptionId",
          "type": "uint256"
        }
      ],
      "name": "canExecuteSubscription",
      "outputs": [
        {
          "internalType": "bool",
          "name": "",
          "type": "bool"
        }
      ],
      "stateMutability": "view",
      "type": "function"
    },
    {
      "inputs": [
        {
          "internalType": "uint256",
          "name": "subscriptionId",
          "type": "uint256"
        }
      ],
      "name": "cancelSubscription",
      "outputs": [],
      "stateMutability": "nonpayable",
      "type": "function"
    },
    {
      "inputs": [
        {
          "internalType": "uint256",
          "name": "vaultId",
          "type": "uint256"
        }
      ],
      "name": "claimVault",
      "outputs": [],
      "stateMutability": "nonpayable",
      "type": "function"
    },
    {
      "inputs": [
        {
          "internalType": "address",
          "name": "recipient",
          "type": "address"
        },
        {
          "internalType": "address",
          "name": "token",
          "type": "address"
        },
        {
          "internalType": "uint256",
          "name": "amount",
          "type": "uint256"
        },
        {
          "internalType": "uint256",
          "name": "interval",
          "type": "uint256"
        },
        {
          "internalType": "uint256",
          "name": "duration",
          "type": "uint256"
        },
        {
          "internalType": "string",
          "name": "label",
          "type": "string"
        }
      ],
      "name": "createSubscription",
      "outputs": [
        {
          "internalType": "uint256",
          "name": "",
          "type": "uint256"
        }
      ],
      "stateMutability": "nonpayable",
      "type": "function"
    },
    {
      "inputs": [
        {
          "internalType": "address",
          "name": "beneficiary",
          "type": "address"
        },
        {
          "internalType": "address",
          "name": "token",
          "type": "address"
        },
        {
          "internalType": "uint256",
          "name": "amount",
          "type": "uint256"
        },
        {
          "internalType": "uint256",
          "name": "unlockTime",
          "type": "uint256"
        },
        {
          "internalType": "string",
          "name": "label",
          "type": "string"
        }
      ],
      "name": "createVault",
      "outputs": [
        {
          "internalType": "uint256",
          "name": "",
          "type": "uint256"
        }
      ],
      "stateMutability": "payable",
      "type": "function"
    },
    {
      "inputs": [
        {
          "internalType": "address",
          "name": "token",
          "type": "address"
        },
        {
          "internalType": "uint256",
          "name": "amount",
          "type": "uint256"
        }
      ],
      "name": "emergencyWithdraw",
      "outputs": [],
      "stateMutability": "nonpayable",
      "type": "function"
    },
    {
      "inputs": [
        {
          "internalType": "uint256",
          "name": "subscriptionId",
          "type": "uint256"
        }
      ],
      "name": "executeSubscriptionPayment",
      "outputs": [],
      "stateMutability": "payable",
      "type": "function"
    },
    {
      "inputs": [],
      "name": "feeRecipient",
      "outputs": [
        {
          "internalType": "address",
          "name": "",
          "type": "address"
        }
      ],
      "stateMutability": "view",
      "type": "function"
    },
    {
      "inputs": [
        {
          "internalType": "uint256",
          "name": "subscriptionId",
          "type": "uint256"
        }
      ],
      "name": "getSubscription",
      "outputs": [
        {
          "components": [
            {
              "internalType": "address",
              "name": "subscriber",
              "type": "address"
            },
            {
              "internalType": "address",
              "name": "recipient",
              "type": "address"
            },
            {
              "internalType": "address",
              "name": "token",
              "type": "address"
            },
            {
              "internalType": "uint256",
              "name": "amount",
              "type": "uint256"
            },
            {
              "internalType": "uint256",
              "name": "interval",
              "type": "uint256"
            },
            {
              "internalType": "uint256",
              "name": "lastPayment",
              "type": "uint256"
            },
            {
              "internalType": "uint256",
              "name": "endTime",
              "type": "uint256"
            },
            {
              "internalType": "string",
              "name": "label",
              "type": "string"
            },
            {
              "internalType": "bool",
              "name": "active",
              "type": "bool"
            }
          ],
          "internalType": "struct MonadPaymentSystem.Subscription",
          "name": "",
          "type": "tuple"
        }
      ],
      "stateMutability": "view",
      "type": "function"
    },
    {
      "inputs": [
        {
          "internalType": "string",
          "name": "symbol",
          "type": "string"
        }
      ],
      "name": "getTokenBySymbol",
      "outputs": [
        {
          "internalType": "address",
          "name": "",
          "type": "address"
        }
      ],
      "stateMutability": "view",
      "type": "function"
    },
    {
      "inputs": [
        {
          "internalType": "address",
          "name": "user",
          "type": "address"
        }
      ],
      "name": "getUserSubscriptions",
      "outputs": [
        {
          "internalType": "uint256[]",
          "name": "",
          "type": "uint256[]"
        }
      ],
      "stateMutability": "view",
      "type": "function"
    },
    {
      "inputs": [
        {
          "internalType": "address",
          "name": "user",
          "type": "address"
        }
      ],
      "name": "getUserVaults",
      "outputs": [
        {
          "internalType": "uint256[]",
          "name": "",
          "type": "uint256[]"
        }
      ],
      "stateMutability": "view",
      "type": "function"
    },
    {
      "inputs": [
        {
          "internalType": "uint256",
          "name": "vaultId",
          "type": "uint256"
        }
      ],
      "name": "getVault",
      "outputs": [
        {
          "components": [
            {
              "internalType": "address",
              "name": "owner",
              "type": "address"
            },
            {
              "internalType": "address",
              "name": "beneficiary",
              "type": "address"
            },
            {
              "internalType": "address",
              "name": "token",
              "type": "address"
            },
            {
              "internalType": "uint256",
              "name": "amount",
              "type": "uint256"
            },
            {
              "internalType": "uint256",
              "name": "unlockTime",
              "type": "uint256"
            },
            {
              "internalType": "string",
              "name": "label",
              "type": "string"
            },
            {
              "internalType": "bool",
              "name": "claimed",
              "type": "bool"
            }
          ],
          "internalType": "struct MonadPaymentSystem.UnlockVault",
          "name": "",
          "type": "tuple"
        }
      ],
      "stateMutability": "view",
      "type": "function"
    },
    {
      "inputs": [],
      "name": "nextSubscriptionId",
      "outputs": [
        {
          "internalType": "uint256",
          "name": "",
          "type": "uint256"
        }
      ],
      "stateMutability": "view",
      "type": "function"
    },
    {
      "inputs": [],
      "name": "nextVaultId",
      "outputs": [
        {
          "internalType": "uint256",
          "name": "",
          "type": "uint256"
        }
      ],
      "stateMutability": "view",
      "type": "function"
    },
    {
      "inputs": [],
      "name": "owner",
      "outputs": [
        {
          "internalType": "address",
          "name": "",
          "type": "address"
        }
      ],
      "stateMutability": "view",
      "type": "function"
    },
    {
      "inputs": [],
      "name": "pause",
      "outputs": [],
      "stateMutability": "nonpayable",
      "type": "function"
    },
    {
      "inputs": [],
      "name": "paused",
      "outputs": [
        {
          "internalType": "bool",
          "name": "",
          "type": "bool"
        }
      ],
      "stateMutability": "view",
      "type": "function"
    },
    {
      "inputs": [
        {
          "internalType": "address",
          "name": "to",
          "type": "address"
        },
        {
          "internalType": "uint256",
          "name": "amount",
          "type": "uint256"
        },
        {
          "internalType": "string",
          "name": "tokenSymbol",
          "type": "string"
        },
        {
          "internalType": "string",
          "name": "label",
          "type": "string"
        }
      ],
      "name": "payByTokenSymbol",
      "outputs": [],
      "stateMutability": "payable",
      "type": "function"
    },
    {
      "inputs": [],
      "name": "platformFee",
      "outputs": [
        {
          "internalType": "uint256",
          "name": "",
          "type": "uint256"
        }
      ],
      "stateMutability": "view",
      "type": "function"
    },
    {
      "inputs": [
        {
          "components": [
            {
              "internalType": "address",
              "name": "to",
              "type": "address"
            },
            {
              "internalType": "uint256",
              "name": "amount",
              "type": "uint256"
            },
            {
              "internalType": "address",
              "name": "token",
              "type": "address"
            },
            {
              "internalType": "uint256",
              "name": "chainId",
              "type": "uint256"
            },
            {
              "internalType": "string",
              "name": "label",
              "type": "string"
            }
          ],
          "internalType": "struct MonadPaymentSystem.PaymentRequest",
          "name": "request",
          "type": "tuple"
        },
        {
          "internalType": "string",
          "name": "deepLink",
          "type": "string"
        }
      ],
      "name": "processDeepLinkPayment",
      "outputs": [],
      "stateMutability": "payable",
      "type": "function"
    },
    {
      "inputs": [
        {
          "internalType": "string",
          "name": "symbol",
          "type": "string"
        },
        {
          "internalType": "address",
          "name": "tokenAddress",
          "type": "address"
        }
      ],
      "name": "registerTokenSymbol",
      "outputs": [],
      "stateMutability": "nonpayable",
      "type": "function"
    },
    {
      "inputs": [],
      "name": "renounceOwnership",
      "outputs": [],
      "stateMutability": "nonpayable",
      "type": "function"
    },
    {
      "inputs": [
        {
          "internalType": "address",
          "name": "_feeRecipient",
          "type": "address"
        }
      ],
      "name": "setFeeRecipient",
      "outputs": [],
      "stateMutability": "nonpayable",
      "type": "function"
    },
    {
      "inputs": [
        {
          "internalType": "uint256",
          "name": "_fee",
          "type": "uint256"
        }
      ],
      "name": "setPlatformFee",
      "outputs": [],
      "stateMutability": "nonpayable",
      "type": "function"
    },
    {
      "inputs": [
        {
          "internalType": "address",
          "name": "to",
          "type": "address"
        },
        {
          "internalType": "address",
          "name": "token",
          "type": "address"
        },
        {
          "internalType": "uint256",
          "name": "amount",
          "type": "uint256"
        },
        {
          "internalType": "string",
          "name": "label",
          "type": "string"
        }
      ],
      "name": "singlePayment",
      "outputs": [],
      "stateMutability": "payable",
      "type": "function"
    },
    {
      "inputs": [
        {
          "internalType": "uint256",
          "name": "",
          "type": "uint256"
        }
      ],
      "name": "subscriptions",
      "outputs": [
        {
          "internalType": "address",
          "name": "subscriber",
          "type": "address"
        },
        {
          "internalType": "address",
          "name": "recipient",
          "type": "address"
        },
        {
          "internalType": "address",
          "name": "token",
          "type": "address"
        },
        {
          "internalType": "uint256",
          "name": "amount",
          "type": "uint256"
        },
        {
          "internalType": "uint256",
          "name": "interval",
          "type": "uint256"
        },
        {
          "internalType": "uint256",
          "name": "lastPayment",
          "type": "uint256"
        },
        {
          "internalType": "uint256",
          "name": "endTime",
          "type": "uint256"
        },
        {
          "internalType": "string",
          "name": "label",
          "type": "string"
        },
        {
          "internalType": "bool",
          "name": "active",
          "type": "bool"
        }
      ],
      "stateMutability": "view",
      "type": "function"
    },
    {
      "inputs": [
        {
          "internalType": "string",
          "name": "",
          "type": "string"
        }
      ],
      "name": "tokenSymbols",
      "outputs": [
        {
          "internalType": "address",
          "name": "",
          "type": "address"
        }
      ],
      "stateMutability": "view",
      "type": "function"
    },
    {
      "inputs": [
        {
          "internalType": "address",
          "name": "newOwner",
          "type": "address"
        }
      ],
      "name": "transferOwnership",
      "outputs": [],
      "stateMutability": "nonpayable",
      "type": "function"
    },
    {
      "inputs": [
        {
          "internalType": "uint256",
          "name": "",
          "type": "uint256"
        }
      ],
      "name": "unlockVaults",
      "outputs": [
        {
          "internalType": "address",
          "name": "owner",
          "type": "address"
        },
        {
          "internalType": "address",
          "name": "beneficiary",
          "type": "address"
        },
        {
          "internalType": "address",
          "name": "token",
          "type": "address"
        },
        {
          "internalType": "uint256",
          "name": "amount",
          "type": "uint256"
        },
        {
          "internalType": "uint256",
          "name": "unlockTime",
          "type": "uint256"
        },
        {
          "internalType": "string",
          "name": "label",
          "type": "string"
        },
        {
          "internalType": "bool",
          "name": "claimed",
          "type": "bool"
        }
      ],
      "stateMutability": "view",
      "type": "function"
    },
    {
      "inputs": [],
      "name": "unpause",
      "outputs": [],
      "stateMutability": "nonpayable",
      "type": "function"
    },
    {
      "inputs": [
        {
          "internalType": "address",
          "name": "",
          "type": "address"
        },
        {
          "internalType": "uint256",
          "name": "",
          "type": "uint256"
        }
      ],
      "name": "userSubscriptions",
      "outputs": [
        {
          "internalType": "uint256",
          "name": "",
          "type": "uint256"
        }
      ],
      "stateMutability": "view",
      "type": "function"
    },
    {
      "inputs": [
        {
          "internalType": "address",
          "name": "",
          "type": "address"
        },
        {
          "internalType": "uint256",
          "name": "",
          "type": "uint256"
        }
      ],
      "name": "userVaults",
      "outputs": [
        {
          "internalType": "uint256",
          "name": "",
          "type": "uint256"
        }
      ],
      "stateMutability": "view",
      "type": "function"
    },
    {
      "stateMutability": "payable",
      "type": "receive"
    }
  ],
  "bytecode": "0x6080604052606460025560016009556001600a553480156200002057600080fd5b50604051620034c9380380620034c9833981016040819052620000439162000124565b60016000556200005333620000d2565b6001805460ff60a01b19169055600380546001600160a01b03199081166001600160a01b039390931692909217815560408051641353d3905160da1b815260086005820181905282519182900360250182208054861690556208aa8960eb1b825292810192909252519081900360230190208054909116905562000156565b600180546001600160a01b038381166001600160a01b0319831681179093556040519116919082907f8be0079c531659141344cd1fd0a4f28419497f9722a3daafe3b4186f6b6457e090600090a35050565b6000602082840312156200013757600080fd5b81516001600160a01b03811681146200014f57600080fd5b9392505050565b61336380620001666000396000f3fe6080604052600436106102135760003560e01c80638456cb5911610118578063da58935f116100a0578063e7f3c69c1161006f578063e7f3c69c146105fd578063efa74f1f1461061d578063f2fde38b1461063d578063f6f607df1461065d578063f8f096a01461069e57600080fd5b8063da58935f1461057a578063dc311dd314610590578063e5ebe91d146105bd578063e74b981b146105dd57600080fd5b80639c841fef116100e75780639c841fef146104e75780639e7ba2d314610507578063a41782871461051a578063c197be9a1461053a578063c95d6edc1461055a57600080fd5b80638456cb59146104675780638da5cb5b1461047c5780639403b6341461049a57806395ccea67146104c757600080fd5b806331f7d9641161019b57806345939bb21161016a57806345939bb2146103cd57806346904840146104005780635c975abb14610420578063618b4f4a1461043f578063715018a61461045257600080fd5b806331f7d964146103585780633ad75ea7146103855780633f4ba83a146103a55780634102b1fb146103ba57600080fd5b80631984f121116101e25780631984f121146102ad57806321235083146102c057806326232a2e146102e05780632d5bbf60146102f65780632e6ca5881461032b57600080fd5b806305efbc4e1461021f5780630c1dc1b81461024557806312ac17631461027557806312e8e2c31461028b57600080fd5b3661021a57005b600080fd5b61023261022d36600461289e565b6106b1565b6040519081526020015b60405180910390f35b34801561025157600080fd5b50610265610260366004612910565b610910565b604051901515815260200161023c565b34801561028157600080fd5b50610232600a5481565b34801561029757600080fd5b506102ab6102a6366004612910565b61093e565b005b6102ab6102bb366004612929565b6109d6565b3480156102cc57600080fd5b506102ab6102db366004612910565b610aa6565b3480156102ec57600080fd5b5061023260025481565b34801561030257600080fd5b50610316610311366004612910565b610b95565b60405161023c999897969594939291906129e1565b34801561033757600080fd5b5061034b610346366004612a47565b610c7b565b60405161023c9190612a62565b34801561036457600080fd5b5061036d600081565b6040516001600160a01b03909116815260200161023c565b34801561039157600080fd5b506102ab6103a0366004612aa6565b610ce7565b3480156103b157600080fd5b506102ab610d5f565b6102ab6103c8366004612910565b610d71565b3480156103d957600080fd5b506103ed6103e8366004612910565b610fa0565b60405161023c9796959493929190612af4565b34801561040c57600080fd5b5060035461036d906001600160a01b031681565b34801561042c57600080fd5b50600154600160a01b900460ff16610265565b6102ab61044d366004612b4c565b611079565b34801561045e57600080fd5b506102ab611407565b34801561047357600080fd5b506102ab611419565b34801561048857600080fd5b506001546001600160a01b031661036d565b3480156104a657600080fd5b506104ba6104b5366004612910565b611429565b60405161023c9190612bc1565b3480156104d357600080fd5b506102ab6104e2366004612c36565b61156b565b3480156104f357600080fd5b50610232610502366004612c36565b6115e6565b6102ab610515366004612c60565b611617565b34801561052657600080fd5b506102ab610535366004612910565b6117b9565b34801561054657600080fd5b50610232610555366004612cd2565b61199d565b34801561056657600080fd5b50610232610575366004612c36565b611c7e565b34801561058657600080fd5b5061023260095481565b34801561059c57600080fd5b506105b06105ab366004612910565b611c9a565b60405161023c9190612d4c565b3480156105c957600080fd5b506102656105d8366004612910565b611e01565b3480156105e957600080fd5b506102ab6105f8366004612a47565b611e4c565b34801561060957600080fd5b5061034b610618366004612a47565b611edd565b34801561062957600080fd5b5061036d610638366004612df0565b611f47565b34801561064957600080fd5b506102ab610658366004612a47565b611f78565b34801561066957600080fd5b5061036d610678366004612df0565b80516020818301810180516008825292820191909301209152546001600160a01b031681565b6102ab6106ac366004612e25565b611fee565b60006106bb612164565b856001600160a01b0381166106eb5760405162461bcd60e51b81526004016106e290612eed565b60405180910390fd5b846000811161070c5760405162461bcd60e51b81526004016106e290612f16565b42851161075b5760405162461bcd60e51b815260206004820152601d60248201527f556e6c6f636b2074696d65206d75737420626520696e2066757475726500000060448201526064016106e2565b600a80546000918261076c83612f63565b9091555090506001600160a01b0388166107a45786341461079f5760405162461bcd60e51b81526004016106e290612f7c565b6107b9565b6107b96001600160a01b03891633308a6121bd565b6040805160e0810182523381526001600160a01b038b811660208084019182528c8316848601908152606085018d8152608086018d815260a087018d8152600060c089018190528a815260059586905298909820875181549088166001600160a01b0319918216178255955160018201805491891691881691909117905592516002840180549190971695169490941790945592516003840155905160048301559251919290919082019061086e908261303b565b5060c091909101516006909101805460ff191691151591909117905533600081815260076020908152604080832080546001810182559084529190922001839055516001600160a01b038b16919083907ff480418ccf270253c223eb4f7bd886dea85dc63907998fcf31d88d8302c7066b906108f1908d908d908d908d906130fb565b60405180910390a4925050506109076001600055565b95945050505050565b6000818152600560205260408120600681015460ff16158015610937575080600401544210155b9392505050565b610946612228565b6103e88111156109905760405162461bcd60e51b81526020600482015260156024820152744665652063616e6e6f74206578636565642031302560581b60448201526064016106e2565b600280549082905560408051828152602081018490527fd347e206f25a89b917fc9482f1a2d294d749baa4dc9bde7fb495ee11fe49164391015b60405180910390a15050565b6109de612164565b6109e6612282565b836001600160a01b038116610a0d5760405162461bcd60e51b81526004016106e290612eed565b8260008111610a2e5760405162461bcd60e51b81526004016106e290612f16565b610a3b33878787876122cf565b846001600160a01b0316866001600160a01b0316336001600160a01b03167fd1c1d12a8f99198af77829b5d87dbacfdce17f95da8eefbf3a4ef02a67793aaa878746604051610a8c93929190613132565b60405180910390a45050610aa06001600055565b50505050565b600081815260046020526040902080546001600160a01b03163314610b065760405162461bcd60e51b81526020600482015260166024820152752737ba1039bab139b1b934b83a34b7b71037bbb732b960511b60448201526064016106e2565b600881015460ff16610b5a5760405162461bcd60e51b815260206004820152601d60248201527f537562736372697074696f6e20616c726561647920696e61637469766500000060448201526064016106e2565b60088101805460ff1916905560405182907fbd2bcea75d16a85f005cd83447e0de57341bf926fe7419e6d553663e91ab4da790600090a25050565b6004602081905260009182526040909120805460018201546002830154600384015494840154600585015460068601546007870180546001600160a01b0397881699968816989790951696939492939192610bef90612fb3565b80601f0160208091040260200160405190810160405280929190818152602001828054610c1b90612fb3565b8015610c685780601f10610c3d57610100808354040283529160200191610c68565b820191906000526020600020905b815481529060010190602001808311610c4b57829003601f168201915b5050506008909301549192505060ff1689565b6001600160a01b038116600090815260066020908152604091829020805483518184028101840190945280845260609392830182828015610cdb57602002820191906000526020600020905b815481526020019060010190808311610cc7575b50505050509050919050565b610cef612228565b80600883604051610d00919061315b565b90815260405190819003602001812080546001600160a01b03939093166001600160a01b0319909316929092179091557f3703aab246fe9eeac0ab1c5c5c4b690e908a2e07368b076218e74b54f3ee0ede906109ca9084908490613177565b610d67612228565b610d6f6123e7565b565b610d79612164565b610d81612282565b6000818152600460205260409020600881015460ff16610de35760405162461bcd60e51b815260206004820152601760248201527f537562736372697074696f6e206e6f742061637469766500000000000000000060448201526064016106e2565b8060060154421115610e2e5760405162461bcd60e51b815260206004820152601460248201527314dd589cd8dc9a5c1d1a5bdb88195e1c1a5c995960621b60448201526064016106e2565b80600401548160050154610e4291906131a1565b421015610e915760405162461bcd60e51b815260206004820152601c60248201527f5061796d656e7420696e74657276616c206e6f7420726561636865640000000060448201526064016106e2565b600181015460028201546003830154600784018054610f499433946001600160a01b03918216949116929091610ec690612fb3565b80601f0160208091040260200160405190810160405280929190818152602001828054610ef290612fb3565b8015610f3f5780601f10610f1457610100808354040283529160200191610f3f565b820191906000526020600020905b815481529060010190602001808311610f2257829003601f168201915b50505050506122cf565b4260058201819055600382015460408051918252602082019290925283917f554e943290fa0afd2b8471de94af606d97bef9c8db987dd5283385e57a5e5859910160405180910390a250610f9d6001600055565b50565b60056020819052600091825260409091208054600182015460028301546003840154600485015495850180546001600160a01b0395861697948616969590931694919392610fed90612fb3565b80601f016020809104026020016040519081016040528092919081815260200182805461101990612fb3565b80156110665780601f1061103b57610100808354040283529160200191611066565b820191906000526020600020905b81548152906001019060200180831161104957829003601f168201915b5050506006909301549192505060ff1687565b611081612164565b611089612282565b806110ce5760405162461bcd60e51b8152602060048201526015602482015274139bc81c185e5b595b9d1cc81cdc1958da599a5959605a1b60448201526064016106e2565b60648111156111135760405162461bcd60e51b8152602060048201526011602482015270546f6f206d616e79207061796d656e747360781b60448201526064016106e2565b60008181805b84811015611395576000868683818110611135576111356131ba565b905060200281019061114791906131d0565b611150906131e6565b80519091506001600160a01b031661119e5760405162461bcd60e51b8152602060048201526011602482015270125b9d985b1a59081c9958da5c1a595b9d607a1b60448201526064016106e2565b60008160400151116111e35760405162461bcd60e51b815260206004820152600e60248201526d125b9d985b1a5908185b5bdd5b9d60921b60448201526064016106e2565b600061271060025483604001516111fa9190613273565b611204919061328a565b9050600081836040015161121891906132ac565b905082604001518561122a91906131a1565b60208401519095506001600160a01b03166112d057604083015161124e90886131a1565b83516040519198506001600160a01b03169082156108fc029083906000818181858888f19350505050158015611288573d6000803e3d6000fd5b5081156112cb576003546040516001600160a01b039091169083156108fc029084906000818181858888f193505050501580156112c9573d6000803e3d6000fd5b505b611316565b825160208401516112ef916001600160a01b03909116903390846121bd565b8115611316576003546020840151611316916001600160a01b0391821691339116856121bd565b82602001516001600160a01b031683600001516001600160a01b0316336001600160a01b03167fd1c1d12a8f99198af77829b5d87dbacfdce17f95da8eefbf3a4ef02a67793aaa866040015187606001514660405161137793929190613132565b60405180910390a4505050808061138d90612f63565b915050611119565b5082156113bb578234146113bb5760405162461bcd60e51b81526004016106e290612f7c565b604080518381526020810183905233917f64fc692c5ed1b81e7a377922015819a5ee4122df7b70536816acab2d7e16bfcd910160405180910390a25050506114036001600055565b5050565b61140f612228565b610d6f600061243c565b611421612228565b610d6f61248e565b6040805160e08101825260008082526020820181905291810182905260608082018390526080820183905260a082015260c0810191909152600082815260056020818152604092839020835160e08101855281546001600160a01b03908116825260018301548116938201939093526002820154909216938201939093526003830154606082015260048301546080820152908201805491929160a0840191906114d290612fb3565b80601f01602080910402602001604051908101604052809291908181526020018280546114fe90612fb3565b801561154b5780601f106115205761010080835404028352916020019161154b565b820191906000526020600020905b81548152906001019060200180831161152e57829003601f168201915b50505091835250506006919091015460ff16151560209091015292915050565b611573612228565b6001600160a01b0382166115c0576001546040516001600160a01b039091169082156108fc029083906000818181858888f193505050501580156115bb573d6000803e3d6000fd5b505050565b6114036115d56001546001600160a01b031690565b6001600160a01b03841690836124d1565b6007602052816000526040600020818154811061160257600080fd5b90600052602060002001600091509150505481565b61161f612164565b611627612282565b836001600160a01b03811661164e5760405162461bcd60e51b81526004016106e290612eed565b836000811161166f5760405162461bcd60e51b81526004016106e290612f16565b6000600885604051611681919061315b565b908152604051908190036020019020546001600160a01b03169050801580156116f95750604051641353d3905160da1b602082015260250160405160208183030381529060405280519060200120856040516020016116e0919061315b565b6040516020818303038152906040528051906020012014155b156117465760405162461bcd60e51b815260206004820152601860248201527f556e737570706f7274656420746f6b656e2073796d626f6c000000000000000060448201526064016106e2565b61175333888389886122cf565b806001600160a01b0316876001600160a01b0316336001600160a01b03167fd1c1d12a8f99198af77829b5d87dbacfdce17f95da8eefbf3a4ef02a67793aaa8988466040516117a493929190613132565b60405180910390a4505050610aa06001600055565b6117c1612164565b600081815260056020526040902060018101546001600160a01b031633146118235760405162461bcd60e51b81526020600482015260156024820152744e6f74207661756c742062656e656669636961727960581b60448201526064016106e2565b806004015442101561186c5760405162461bcd60e51b815260206004820152601260248201527115985d5b1d081cdd1a5b1b081b1bd8dad95960721b60448201526064016106e2565b600681015460ff16156118b95760405162461bcd60e51b815260206004820152601560248201527415985d5b1d08185b1c9958591e4818db185a5b5959605a1b60448201526064016106e2565b60068101805460ff1916600117905560028101546001600160a01b031661192057600181015460038201546040516001600160a01b039092169181156108fc0291906000818181858888f1935050505015801561191a573d6000803e3d6000fd5b50611947565b600181015460038201546002830154611947926001600160a01b03918216929116906124d1565b600181015460038201546040519081526001600160a01b039091169083907faa2362fdef79ab33c7194cfa07b4ebed6776dae7fea1f220fe552ee45bd615749060200160405180910390a350610f9d6001600055565b6000866001600160a01b0381166119c65760405162461bcd60e51b81526004016106e290612eed565b85600081116119e75760405162461bcd60e51b81526004016106e290612f16565b610e10861015611a395760405162461bcd60e51b815260206004820181905260248201527f496e74657276616c206d757374206265206174206c65617374203120686f757260448201526064016106e2565b60008511611a895760405162461bcd60e51b815260206004820152601f60248201527f4475726174696f6e206d7573742062652067726561746572207468616e20300060448201526064016106e2565b6009805460009182611a9a83612f63565b9091555090506000611aac87426131a1565b9050604051806101200160405280336001600160a01b031681526020018c6001600160a01b031681526020018b6001600160a01b031681526020018a815260200189815260200160008152602001828152602001878152602001600115158152506004600084815260200190815260200160002060008201518160000160006101000a8154816001600160a01b0302191690836001600160a01b0316021790555060208201518160010160006101000a8154816001600160a01b0302191690836001600160a01b0316021790555060408201518160020160006101000a8154816001600160a01b0302191690836001600160a01b03160217905550606082015181600301556080820151816004015560a0820151816005015560c0820151816006015560e0820151816007019081611be4919061303b565b5061010091909101516008909101805460ff191691151591909117905533600081815260066020908152604080832080546001810182559084529190922001849055516001600160a01b038d16919084907f39804a6d439925417d3568bb4a584014e7b5331e9cb978594e40d79b9321fa5190611c68908f908f908f908e906130fb565b60405180910390a4509998505050505050505050565b6006602052816000526040600020818154811061160257600080fd5b604080516101208101825260008082526020820181905291810182905260608082018390526080820183905260a0820183905260c0820183905260e082015261010081019190915260008281526004602081815260409283902083516101208101855281546001600160a01b039081168252600183015481169382019390935260028201549092169382019390935260038301546060820152908201546080820152600582015460a0820152600682015460c082015260078201805491929160e084019190611d6890612fb3565b80601f0160208091040260200160405190810160405280929190818152602001828054611d9490612fb3565b8015611de15780601f10611db657610100808354040283529160200191611de1565b820191906000526020600020905b815481529060010190602001808311611dc457829003601f168201915b50505091835250506008919091015460ff16151560209091015292915050565b6000818152600460205260408120600881015460ff168015611e27575080600601544211155b8015610937575080600401548160050154611e4291906131a1565b4210159392505050565b611e54612228565b806001600160a01b038116611e7b5760405162461bcd60e51b81526004016106e290612eed565b600380546001600160a01b038481166001600160a01b031983168117909355604080519190921680825260208201939093527faaebcf1bfa00580e41d966056b48521fa9f202645c86d4ddf28113e617c1b1d3910160405180910390a1505050565b6001600160a01b038116600090815260076020908152604091829020805483518184028101840190945280845260609392830182828015610cdb5760200282019190600052602060002090815481526020019060010190808311610cc75750505050509050919050565b6000600882604051611f59919061315b565b908152604051908190036020019020546001600160a01b031692915050565b611f80612228565b6001600160a01b038116611fe55760405162461bcd60e51b815260206004820152602660248201527f4f776e61626c653a206e6577206f776e657220697320746865207a65726f206160448201526564647265737360d01b60648201526084016106e2565b610f9d8161243c565b611ff6612164565b611ffe612282565b81516001600160a01b03166120555760405162461bcd60e51b815260206004820152601960248201527f496e76616c696420726563697069656e7420616464726573730000000000000060448201526064016106e2565b60008260200151116120795760405162461bcd60e51b81526004016106e290612f16565b6060820151158061208d5750468260600151145b6120cc5760405162461bcd60e51b815260206004820152601060248201526f125b9d985b1a590818da185a5b88125160821b60448201526064016106e2565b60408201516001600160a01b0381166120e3575060005b6120fc33846000015183866020015187608001516122cf565b82600001516001600160a01b0316336001600160a01b03167f9473a9cd573907e0db26edb6a8e2ab1befdec348c5fd70fc6f857fbcb13dcbc883866020015187608001518760405161215194939291906132bf565b60405180910390a3506114036001600055565b6002600054036121b65760405162461bcd60e51b815260206004820152601f60248201527f5265656e7472616e637947756172643a207265656e7472616e742063616c6c0060448201526064016106e2565b6002600055565b6040516001600160a01b0380851660248301528316604482015260648101829052610aa09085906323b872dd60e01b906084015b60408051601f198184030181529190526020810180516001600160e01b03166001600160e01b031990931692909217909152612501565b6001546001600160a01b03163314610d6f5760405162461bcd60e51b815260206004820181905260248201527f4f776e61626c653a2063616c6c6572206973206e6f7420746865206f776e657260448201526064016106e2565b600154600160a01b900460ff1615610d6f5760405162461bcd60e51b815260206004820152601060248201526f14185d5cd8589b194e881c185d5cd95960821b60448201526064016106e2565b6000612710600254846122e29190613273565b6122ec919061328a565b905060006122fa82856132ac565b90506001600160a01b0385166123a7578334146123295760405162461bcd60e51b81526004016106e290612f7c565b6040516001600160a01b0387169082156108fc029083906000818181858888f1935050505015801561235f573d6000803e3d6000fd5b5081156123a2576003546040516001600160a01b039091169083156108fc029084906000818181858888f193505050501580156123a0573d6000803e3d6000fd5b505b6123de565b6123bc6001600160a01b0386168888846121bd565b81156123de576003546123de906001600160a01b03878116918a9116856121bd565b50505050505050565b6123ef6125d6565b6001805460ff60a01b191690557f5db9ee0a495bf2e6ff9c91a7834c1ba4fdd244a5e8aa4e537bd38aeae4b073aa335b6040516001600160a01b03909116815260200160405180910390a1565b600180546001600160a01b038381166001600160a01b0319831681179093556040519116919082907f8be0079c531659141344cd1fd0a4f28419497f9722a3daafe3b4186f6b6457e090600090a35050565b612496612282565b6001805460ff60a01b1916600160a01b1790557f62e78cea01bee320cd4e420270b5ea74000d11b0c9f74754ebdbfc544b05a25861241f3390565b6040516001600160a01b0383166024820152604481018290526115bb90849063a9059cbb60e01b906064016121f1565b6000612556826040518060400160405280602081526020017f5361666545524332303a206c6f772d6c6576656c2063616c6c206661696c6564815250856001600160a01b03166126269092919063ffffffff16565b905080516000148061257757508080602001905181019061257791906132f8565b6115bb5760405162461bcd60e51b815260206004820152602a60248201527f5361666545524332303a204552433230206f7065726174696f6e20646964206e6044820152691bdd081cdd58d8d9595960b21b60648201526084016106e2565b600154600160a01b900460ff16610d6f5760405162461bcd60e51b815260206004820152601460248201527314185d5cd8589b194e881b9bdd081c185d5cd95960621b60448201526064016106e2565b6060612635848460008561263d565b949350505050565b60608247101561269e5760405162461bcd60e51b815260206004820152602660248201527f416464726573733a20696e73756666696369656e742062616c616e636520666f6044820152651c8818d85b1b60d21b60648201526084016106e2565b600080866001600160a01b031685876040516126ba919061315b565b60006040518083038185875af1925050503d80600081146126f7576040519150601f19603f3d011682016040523d82523d6000602084013e6126fc565b606091505b509150915061270d87838387612718565b979650505050505050565b60608315612787578251600003612780576001600160a01b0385163b6127805760405162461bcd60e51b815260206004820152601d60248201527f416464726573733a2063616c6c20746f206e6f6e2d636f6e747261637400000060448201526064016106e2565b5081612635565b612635838381511561279c5781518083602001fd5b8060405162461bcd60e51b81526004016106e2919061331a565b80356001600160a01b03811681146127cd57600080fd5b919050565b634e487b7160e01b600052604160045260246000fd5b60405160a0810167ffffffffffffffff8111828210171561280b5761280b6127d2565b60405290565b600082601f83011261282257600080fd5b813567ffffffffffffffff8082111561283d5761283d6127d2565b604051601f8301601f19908116603f01168101908282118183101715612865576128656127d2565b8160405283815286602085880101111561287e57600080fd5b836020870160208301376000602085830101528094505050505092915050565b600080600080600060a086880312156128b657600080fd5b6128bf866127b6565b94506128cd602087016127b6565b93506040860135925060608601359150608086013567ffffffffffffffff8111156128f757600080fd5b61290388828901612811565b9150509295509295909350565b60006020828403121561292257600080fd5b5035919050565b6000806000806080858703121561293f57600080fd5b612948856127b6565b9350612956602086016127b6565b925060408501359150606085013567ffffffffffffffff81111561297957600080fd5b61298587828801612811565b91505092959194509250565b60005b838110156129ac578181015183820152602001612994565b50506000910152565b600081518084526129cd816020860160208601612991565b601f01601f19169290920160200192915050565b600061012060018060a01b03808d168452808c166020850152808b166040850152508860608401528760808401528660a08401528560c08401528060e0840152612a2d818401866129b5565b9150508215156101008301529a9950505050505050505050565b600060208284031215612a5957600080fd5b610937826127b6565b6020808252825182820181905260009190848201906040850190845b81811015612a9a57835183529284019291840191600101612a7e565b50909695505050505050565b60008060408385031215612ab957600080fd5b823567ffffffffffffffff811115612ad057600080fd5b612adc85828601612811565b925050612aeb602084016127b6565b90509250929050565b6001600160a01b038881168252878116602083015286166040820152606081018590526080810184905260e060a08201819052600090612b36908301856129b5565b905082151560c083015298975050505050505050565b60008060208385031215612b5f57600080fd5b823567ffffffffffffffff80821115612b7757600080fd5b818501915085601f830112612b8b57600080fd5b813581811115612b9a57600080fd5b8660208260051b8501011115612baf57600080fd5b60209290920196919550909350505050565b60208152600060018060a01b038084511660208401528060208501511660408401528060408501511660608401525060608301516080830152608083015160a083015260a083015160e060c0840152612c1e6101008401826129b5565b905060c0840151151560e08401528091505092915050565b60008060408385031215612c4957600080fd5b612c52836127b6565b946020939093013593505050565b60008060008060808587031215612c7657600080fd5b612c7f856127b6565b935060208501359250604085013567ffffffffffffffff80821115612ca357600080fd5b612caf88838901612811565b93506060870135915080821115612cc557600080fd5b5061298587828801612811565b60008060008060008060c08789031215612ceb57600080fd5b612cf4876127b6565b9550612d02602088016127b6565b945060408701359350606087013592506080870135915060a087013567ffffffffffffffff811115612d3357600080fd5b612d3f89828a01612811565b9150509295509295509295565b60208152612d666020820183516001600160a01b03169052565b60006020830151612d8260408401826001600160a01b03169052565b5060408301516001600160a01b03811660608401525060608301516080830152608083015160a083015260a083015160c083015260c083015160e083015260e08301516101206101008181860152612dde6101408601846129b5565b95015115159301929092525090919050565b600060208284031215612e0257600080fd5b813567ffffffffffffffff811115612e1957600080fd5b61263584828501612811565b60008060408385031215612e3857600080fd5b823567ffffffffffffffff80821115612e5057600080fd5b9084019060a08287031215612e6457600080fd5b612e6c6127e8565b612e75836127b6565b815260208301356020820152612e8d604084016127b6565b604082015260608301356060820152608083013582811115612eae57600080fd5b612eba88828601612811565b60808301525093506020850135915080821115612ed657600080fd5b50612ee385828601612811565b9150509250929050565b6020808252600f908201526e496e76616c6964206164647265737360881b604082015260600190565b6020808252601d908201527f416d6f756e74206d7573742062652067726561746572207468616e2030000000604082015260600190565b634e487b7160e01b600052601160045260246000fd5b600060018201612f7557612f75612f4d565b5060010190565b6020808252601d908201527f496e636f7272656374206e617469766520746f6b656e20616d6f756e74000000604082015260600190565b600181811c90821680612fc757607f821691505b602082108103612fe757634e487b7160e01b600052602260045260246000fd5b50919050565b601f8211156115bb57600081815260208120601f850160051c810160208610156130145750805b601f850160051c820191505b8181101561303357828155600101613020565b505050505050565b815167ffffffffffffffff811115613055576130556127d2565b613069816130638454612fb3565b84612fed565b602080601f83116001811461309e57600084156130865750858301515b600019600386901b1c1916600185901b178555613033565b600085815260208120601f198616915b828110156130cd578886015182559484019460019091019084016130ae565b50858210156130eb5787850151600019600388901b60f8161c191681555b5050505050600190811b01905550565b60018060a01b038516815283602082015282604082015260806060820152600061312860808301846129b5565b9695505050505050565b83815260606020820152600061314b60608301856129b5565b9050826040830152949350505050565b6000825161316d818460208701612991565b9190910192915050565b60408152600061318a60408301856129b5565b905060018060a01b03831660208301529392505050565b808201808211156131b4576131b4612f4d565b92915050565b634e487b7160e01b600052603260045260246000fd5b60008235607e1983360301811261316d57600080fd5b6000608082360312156131f857600080fd5b6040516080810167ffffffffffffffff828210818311171561321c5761321c6127d2565b81604052613229856127b6565b8352613237602086016127b6565b602084015260408501356040840152606085013591508082111561325a57600080fd5b5061326736828601612811565b60608301525092915050565b80820281158282048414176131b4576131b4612f4d565b6000826132a757634e487b7160e01b600052601260045260246000fd5b500490565b818103818111156131b4576131b4612f4d565b60018060a01b03851681528360208201526080604082015260006132e660808301856129b5565b828103606084015261270d81856129b5565b60006020828403121561330a57600080fd5b8151801515811461093757600080fd5b60208152600061093760208301846129b556fea2646970667358221220e125e3ae9dff485fb13261f2600aceda525c57ea7ffe9f1fb541f0b0f279704c64736f6c63430008130033",
  "linkReferences": {},
  "deployedLinkReferences": {}
}