{
  "_format": "hh-sol-artifact-1",
  "contractName": "MockERC20",
  "sourceName": "contracts/test/MockERC20.sol",
  "abi": [
    {
      "inputs": [
        {
          "internalType": "string",
          "name": "name",
          "type": "string"
        },
        {
          "internalType": "string",
          "name": "symbol",
          "type": "string"
        },
        {
          "internalType": "uint8",
          "name": "decimals_",
          "type": "uint8"
        }
      ],
      "stateMutability": "nonpayable",
      "type": "constructor"
    },
    {
      "anonymous": false,
      "inputs": [
        {
          "indexed": true,
          "internalType": "address",
          "name": "owner",
          "type": "address"
        },
        {
          "indexed": true,
          "internalType": "address",
          "name": "spender",
          "type": "address"
        },
        {
          "indexed": false,
          "internalType": "uint256",
          "name": "value",
          "type": "uint256"
        }
      ],
      "name": "Approval",
      "type": "event"
    },
    {
      "anonymous": false,
      "inputs": [
        {
          "indexed": true,
          "internalType": "address",
          "name": "from",
          "type": "address"
        },
        {
          "indexed": true,
          "internalType": "address",
          "name": "to",
          "type": "address"
        },
        {
          "indexed": false,
          "internalType": "uint256",
          "name": "value",
          "type": "uint256"
        }
      ],
      "name": "Transfer",
      "type": "event"
    },
    {
      "inputs": [
        {
          "internalType": "address",
          "name": "owner",
          "type": "address"
        },
        {
          "internalType": "address",
          "name": "spender",
          "type": "address"
        }
      ],
      "name": "allowance",
      "outputs": [
        {
          "internalType": "uint256",
          "name": "",
          "type": "uint256"
        }
      ],
      "stateMutability": "view",
      "type": "function"
    },
    {
      "inputs": [
        {
          "internalType": "address",
          "name": "spender",
          "type": "address"
        },
        {
          "internalType": "uint256",
          "name": "amount",
          "type": "uint256"
        }
      ],
      "name": "approve",
      "outputs": [
        {
          "internalType": "bool",
          "name": "",
          "type": "bool"
        }
      ],
      "stateMutability": "nonpayable",
      "type": "function"
    },
    {
      "inputs": [
        {
          "internalType": "address",
          "name": "account",
          "type": "address"
        }
      ],
      "name": "balanceOf",
      "outputs": [
        {
          "internalType": "uint256",
          "name": "",
          "type": "uint256"
        }
      ],
      "stateMutability": "view",
      "type": "function"
    },
    {
      "inputs": [
        {
          "internalType": "address[]",
          "name": "recipients",
          "type": "address[]"
        },
        {
          "internalType": "uint256[]",
          "name": "amounts",
          "type": "uint256[]"
        }
      ],
      "name": "batchMint",
      "outputs": [],
      "stateMutability": "nonpayable",
      "type": "function"
    },
    {
      "inputs": [
        {
          "internalType": "address",
          "name": "from",
          "type": "address"
        },
        {
          "internalType": "uint256",
          "name": "amount",
          "type": "uint256"
        }
      ],
      "name": "burn",
      "outputs": [],
      "stateMutability": "nonpayable",
      "type": "function"
    },
    {
      "inputs": [],
      "name": "decimals",
      "outputs": [
        {
          "internalType": "uint8",
          "name": "",
          "type": "uint8"
        }
      ],
      "stateMutability": "view",
      "type": "function"
    },
    {
      "inputs": [
        {
          "internalType": "address",
          "name": "spender",
          "type": "address"
        },
        {
          "internalType": "uint256",
          "name": "subtractedValue",
          "type": "uint256"
        }
      ],
      "name": "decreaseAllowance",
      "outputs": [
        {
          "internalType": "bool",
          "name": "",
          "type": "bool"
        }
      ],
      "stateMutability": "nonpayable",
      "type": "function"
    },
    {
      "inputs": [
        {
          "internalType": "address",
          "name": "spender",
          "type": "address"
        },
        {
          "internalType": "uint256",
          "name": "addedValue",
          "type": "uint256"
        }
      ],
      "name": "increaseAllowance",
      "outputs": [
        {
          "internalType": "bool",
          "name": "",
          "type": "bool"
        }
      ],
      "stateMutability": "nonpayable",
      "type": "function"
    },
    {
      "inputs": [
        {
          "internalType": "address",
          "name": "to",
          "type": "address"
        },
        {
          "internalType": "uint256",
          "name": "amount",
          "type": "uint256"
        }
      ],
      "name": "mint",
      "outputs": [],
      "stateMutability": "nonpayable",
      "type": "function"
    },
    {
      "inputs": [],
      "name": "name",
      "outputs": [
        {
          "internalType": "string",
          "name": "",
          "type": "string"
        }
      ],
      "stateMutability": "view",
      "type": "function"
    },
    {
      "inputs": [],
      "name": "symbol",
      "outputs": [
        {
          "internalType": "string",
          "name": "",
          "type": "string"
        }
      ],
      "stateMutability": "view",
      "type": "function"
    },
    {
      "inputs": [],
      "name": "totalSupply",
      "outputs": [
        {
          "internalType": "uint256",
          "name": "",
          "type": "uint256"
        }
      ],
      "stateMutability": "view",
      "type": "function"
    },
    {
      "inputs": [
        {
          "internalType": "address",
          "name": "to",
          "type": "address"
        },
        {
          "internalType": "uint256",
          "name": "amount",
          "type": "uint256"
        }
      ],
      "name": "transfer",
      "outputs": [
        {
          "internalType": "bool",
          "name": "",
          "type": "bool"
        }
      ],
      "stateMutability": "nonpayable",
      "type": "function"
    },
    {
      "inputs": [
        {
          "internalType": "address",
          "name": "from",
          "type": "address"
        },
        {
          "internalType": "address",
          "name": "to",
          "type": "address"
        },
        {
          "internalType": "uint256",
          "name": "amount",
          "type": "uint256"
        }
      ],
      "name": "transferFrom",
      "outputs": [
        {
          "internalType": "bool",
          "name": "",
          "type": "bool"
        }
      ],
      "stateMutability": "nonpayable",
      "type": "function"
    }
  ],
  "bytecode": "0x60806040523480156200001157600080fd5b506040516200107c3803806200107c833981016040819052620000349162000139565b828260036200004483826200024d565b5060046200005382826200024d565b50506005805460ff191660ff93909316929092179091555062000319915050565b634e487b7160e01b600052604160045260246000fd5b600082601f8301126200009c57600080fd5b81516001600160401b0380821115620000b957620000b962000074565b604051601f8301601f19908116603f01168101908282118183101715620000e457620000e462000074565b816040528381526020925086838588010111156200010157600080fd5b600091505b8382101562000125578582018301518183018401529082019062000106565b600093810190920192909252949350505050565b6000806000606084860312156200014f57600080fd5b83516001600160401b03808211156200016757600080fd5b62000175878388016200008a565b945060208601519150808211156200018c57600080fd5b506200019b868287016200008a565b925050604084015160ff81168114620001b357600080fd5b809150509250925092565b600181811c90821680620001d357607f821691505b602082108103620001f457634e487b7160e01b600052602260045260246000fd5b50919050565b601f8211156200024857600081815260208120601f850160051c81016020861015620002235750805b601f850160051c820191505b8181101562000244578281556001016200022f565b5050505b505050565b81516001600160401b0381111562000269576200026962000074565b62000281816200027a8454620001be565b84620001fa565b602080601f831160018114620002b95760008415620002a05750858301515b600019600386901b1c1916600185901b17855562000244565b600085815260208120601f198616915b82811015620002ea57888601518255948401946001909101908401620002c9565b5085821015620003095787850151600019600388901b60f8161c191681555b5050505050600190811b01905550565b610d5380620003296000396000f3fe608060405234801561001057600080fd5b50600436106100ea5760003560e01c8063685731071161008c5780639dc29fac116100665780639dc29fac146101d6578063a457c2d7146101e9578063a9059cbb146101fc578063dd62ed3e1461020f57600080fd5b8063685731071461019257806370a08231146101a557806395d89b41146101ce57600080fd5b806323b872dd116100c857806323b872dd14610142578063313ce56714610155578063395093511461016a57806340c10f191461017d57600080fd5b806306fdde03146100ef578063095ea7b31461010d57806318160ddd14610130575b600080fd5b6100f7610222565b60405161010491906109d0565b60405180910390f35b61012061011b366004610a3a565b6102b4565b6040519015158152602001610104565b6002545b604051908152602001610104565b610120610150366004610a64565b6102ce565b60055460405160ff9091168152602001610104565b610120610178366004610a3a565b6102f2565b61019061018b366004610a3a565b610314565b005b6101906101a0366004610b76565b610322565b6101346101b3366004610c36565b6001600160a01b031660009081526020819052604090205490565b6100f76103d0565b6101906101e4366004610a3a565b6103df565b6101206101f7366004610a3a565b6103e9565b61012061020a366004610a3a565b610464565b61013461021d366004610c58565b610472565b60606003805461023190610c8b565b80601f016020809104026020016040519081016040528092919081815260200182805461025d90610c8b565b80156102aa5780601f1061027f576101008083540402835291602001916102aa565b820191906000526020600020905b81548152906001019060200180831161028d57829003601f168201915b5050505050905090565b6000336102c281858561049d565b60019150505b92915050565b6000336102dc8582856105c1565b6102e785858561063b565b506001949350505050565b6000336102c28185856103058383610472565b61030f9190610cdb565b61049d565b61031e82826107df565b5050565b80518251146103715760405162461bcd60e51b8152602060048201526016602482015275082e4e4c2f2e640d8cadccee8d040dad2e6dac2e8c6d60531b60448201526064015b60405180910390fd5b60005b82518110156103cb576103b983828151811061039257610392610cee565b60200260200101518383815181106103ac576103ac610cee565b60200260200101516107df565b806103c381610d04565b915050610374565b505050565b60606004805461023190610c8b565b61031e828261089e565b600033816103f78286610472565b9050838110156104575760405162461bcd60e51b815260206004820152602560248201527f45524332303a2064656372656173656420616c6c6f77616e63652062656c6f77604482015264207a65726f60d81b6064820152608401610368565b6102e7828686840361049d565b6000336102c281858561063b565b6001600160a01b03918216600090815260016020908152604080832093909416825291909152205490565b6001600160a01b0383166104ff5760405162461bcd60e51b8152602060048201526024808201527f45524332303a20617070726f76652066726f6d20746865207a65726f206164646044820152637265737360e01b6064820152608401610368565b6001600160a01b0382166105605760405162461bcd60e51b815260206004820152602260248201527f45524332303a20617070726f766520746f20746865207a65726f206164647265604482015261737360f01b6064820152608401610368565b6001600160a01b0383811660008181526001602090815260408083209487168084529482529182902085905590518481527f8c5be1e5ebec7d5bd14f71427d1e84f3dd0314c0f7b2291e5b200ac8c7c3b925910160405180910390a3505050565b60006105cd8484610472565b9050600019811461063557818110156106285760405162461bcd60e51b815260206004820152601d60248201527f45524332303a20696e73756666696369656e7420616c6c6f77616e63650000006044820152606401610368565b610635848484840361049d565b50505050565b6001600160a01b03831661069f5760405162461bcd60e51b815260206004820152602560248201527f45524332303a207472616e736665722066726f6d20746865207a65726f206164604482015264647265737360d81b6064820152608401610368565b6001600160a01b0382166107015760405162461bcd60e51b815260206004820152602360248201527f45524332303a207472616e7366657220746f20746865207a65726f206164647260448201526265737360e81b6064820152608401610368565b6001600160a01b038316600090815260208190526040902054818110156107795760405162461bcd60e51b815260206004820152602660248201527f45524332303a207472616e7366657220616d6f756e7420657863656564732062604482015265616c616e636560d01b6064820152608401610368565b6001600160a01b03848116600081815260208181526040808320878703905593871680835291849020805487019055925185815290927fddf252ad1be2c89b69c2b068fc378daa952ba7f163c4a11628f55a4df523b3ef910160405180910390a3610635565b6001600160a01b0382166108355760405162461bcd60e51b815260206004820152601f60248201527f45524332303a206d696e7420746f20746865207a65726f2061646472657373006044820152606401610368565b80600260008282546108479190610cdb565b90915550506001600160a01b038216600081815260208181526040808320805486019055518481527fddf252ad1be2c89b69c2b068fc378daa952ba7f163c4a11628f55a4df523b3ef910160405180910390a35050565b6001600160a01b0382166108fe5760405162461bcd60e51b815260206004820152602160248201527f45524332303a206275726e2066726f6d20746865207a65726f206164647265736044820152607360f81b6064820152608401610368565b6001600160a01b038216600090815260208190526040902054818110156109725760405162461bcd60e51b815260206004820152602260248201527f45524332303a206275726e20616d6f756e7420657863656564732062616c616e604482015261636560f01b6064820152608401610368565b6001600160a01b0383166000818152602081815260408083208686039055600280548790039055518581529192917fddf252ad1be2c89b69c2b068fc378daa952ba7f163c4a11628f55a4df523b3ef910160405180910390a3505050565b600060208083528351808285015260005b818110156109fd578581018301518582016040015282016109e1565b506000604082860101526040601f19601f8301168501019250505092915050565b80356001600160a01b0381168114610a3557600080fd5b919050565b60008060408385031215610a4d57600080fd5b610a5683610a1e565b946020939093013593505050565b600080600060608486031215610a7957600080fd5b610a8284610a1e565b9250610a9060208501610a1e565b9150604084013590509250925092565b634e487b7160e01b600052604160045260246000fd5b604051601f8201601f1916810167ffffffffffffffff81118282101715610adf57610adf610aa0565b604052919050565b600067ffffffffffffffff821115610b0157610b01610aa0565b5060051b60200190565b600082601f830112610b1c57600080fd5b81356020610b31610b2c83610ae7565b610ab6565b82815260059290921b84018101918181019086841115610b5057600080fd5b8286015b84811015610b6b5780358352918301918301610b54565b509695505050505050565b60008060408385031215610b8957600080fd5b823567ffffffffffffffff80821115610ba157600080fd5b818501915085601f830112610bb557600080fd5b81356020610bc5610b2c83610ae7565b82815260059290921b84018101918181019089841115610be457600080fd5b948201945b83861015610c0957610bfa86610a1e565b82529482019490820190610be9565b96505086013592505080821115610c1f57600080fd5b50610c2c85828601610b0b565b9150509250929050565b600060208284031215610c4857600080fd5b610c5182610a1e565b9392505050565b60008060408385031215610c6b57600080fd5b610c7483610a1e565b9150610c8260208401610a1e565b90509250929050565b600181811c90821680610c9f57607f821691505b602082108103610cbf57634e487b7160e01b600052602260045260246000fd5b50919050565b634e487b7160e01b600052601160045260246000fd5b808201808211156102c8576102c8610cc5565b634e487b7160e01b600052603260045260246000fd5b600060018201610d1657610d16610cc5565b506001019056fea26469706673582212201f2de2ec3aa892c861305ec4d91efc37c0326884c3524d2e29a89d403938b16b64736f6c63430008130033",
  "linkReferences": {},
  "deployedLinkReferences": {}
}