{
  "_format": "hh-sol-artifact-1",
  "contractName": "MonadPayURLParser",
  "sourceName": "contracts/MonadPayURLParser.sol",
  "abi": [
    {
      "inputs": [
        {
          "internalType": "address",
          "name": "_paymentSystem",
          "type": "address"
        }
      ],
      "stateMutability": "nonpayable",
      "type": "constructor"
    },
    {
      "anonymous": false,
      "inputs": [
        {
          "indexed": true,
          "internalType": "address",
          "name": "payer",
          "type": "address"
        },
        {
          "indexed": false,
          "internalType": "string",
          "name": "originalURL",
          "type": "string"
        },
        {
          "indexed": false,
          "internalType": "address",
          "name": "recipient",
          "type": "address"
        },
        {
          "indexed": false,
          "internalType": "uint256",
          "name": "amount",
          "type": "uint256"
        },
        {
          "indexed": false,
          "internalType": "address",
          "name": "token",
          "type": "address"
        },
        {
          "indexed": false,
          "internalType": "string",
          "name": "label",
          "type": "string"
        }
      ],
      "name": "URLPaymentProcessed",
      "type": "event"
    },
    {
      "inputs": [
        {
          "internalType": "address",
          "name": "addr",
          "type": "address"
        }
      ],
      "name": "addressToString",
      "outputs": [
        {
          "internalType": "string",
          "name": "",
          "type": "string"
        }
      ],
      "stateMutability": "pure",
      "type": "function"
    },
    {
      "inputs": [
        {
          "internalType": "address",
          "name": "to",
          "type": "address"
        },
        {
          "internalType": "uint256",
          "name": "amount",
          "type": "uint256"
        },
        {
          "internalType": "string",
          "name": "tokenSymbol",
          "type": "string"
        },
        {
          "internalType": "string",
          "name": "label",
          "type": "string"
        }
      ],
      "name": "buildMonadPayURL",
      "outputs": [
        {
          "internalType": "string",
          "name": "",
          "type": "string"
        }
      ],
      "stateMutability": "pure",
      "type": "function"
    },
    {
      "inputs": [
        {
          "internalType": "string",
          "name": "tokenSymbol",
          "type": "string"
        },
        {
          "internalType": "string",
          "name": "tokenAddress",
          "type": "string"
        }
      ],
      "name": "determineTokenAddress",
      "outputs": [
        {
          "internalType": "address",
          "name": "",
          "type": "address"
        }
      ],
      "stateMutability": "view",
      "type": "function"
    },
    {
      "inputs": [
        {
          "internalType": "string",
          "name": "addrStr",
          "type": "string"
        }
      ],
      "name": "parseAddress",
      "outputs": [
        {
          "internalType": "address",
          "name": "",
          "type": "address"
        }
      ],
      "stateMutability": "pure",
      "type": "function"
    },
    {
      "inputs": [
        {
          "internalType": "string",
          "name": "amountStr",
          "type": "string"
        }
      ],
      "name": "parseAmount",
      "outputs": [
        {
          "internalType": "uint256",
          "name": "",
          "type": "uint256"
        }
      ],
      "stateMutability": "pure",
      "type": "function"
    },
    {
      "inputs": [
        {
          "internalType": "string",
          "name": "numStr",
          "type": "string"
        }
      ],
      "name": "parseUint",
      "outputs": [
        {
          "internalType": "uint256",
          "name": "",
          "type": "uint256"
        }
      ],
      "stateMutability": "pure",
      "type": "function"
    },
    {
      "inputs": [
        {
          "internalType": "string",
          "name": "to",
          "type": "string"
        },
        {
          "internalType": "string",
          "name": "amount",
          "type": "string"
        },
        {
          "internalType": "string",
          "name": "tokenSymbol",
          "type": "string"
        },
        {
          "internalType": "string",
          "name": "label",
          "type": "string"
        }
      ],
      "name": "payBySymbol",
      "outputs": [],
      "stateMutability": "payable",
      "type": "function"
    },
    {
      "inputs": [],
      "name": "paymentSystem",
      "outputs": [
        {
          "internalType": "contract MonadPaymentSystem",
          "name": "",
          "type": "address"
        }
      ],
      "stateMutability": "view",
      "type": "function"
    },
    {
      "inputs": [
        {
          "components": [
            {
              "internalType": "string",
              "name": "to",
              "type": "string"
            },
            {
              "internalType": "string",
              "name": "amount",
              "type": "string"
            },
            {
              "internalType": "string",
              "name": "token",
              "type": "string"
            },
            {
              "internalType": "string",
              "name": "tokenAddress",
              "type": "string"
            },
            {
              "internalType": "string",
              "name": "chainId",
              "type": "string"
            },
            {
              "internalType": "string",
              "name": "label",
              "type": "string"
            }
          ],
          "internalType": "struct MonadPayURLParser.URLParams",
          "name": "urlParams",
          "type": "tuple"
        },
        {
          "internalType": "string",
          "name": "originalURL",
          "type": "string"
        }
      ],
      "name": "processURLPayment",
      "outputs": [],
      "stateMutability": "payable",
      "type": "function"
    },
    {
      "inputs": [
        {
          "internalType": "uint256",
          "name": "value",
          "type": "uint256"
        }
      ],
      "name": "uintToString",
      "outputs": [
        {
          "internalType": "string",
          "name": "",
          "type": "string"
        }
      ],
      "stateMutability": "pure",
      "type": "function"
    }
  ],
  "bytecode": "0x60a060405234801561001057600080fd5b5060405161133338038061133383398101604081905261002f91610040565b6001600160a01b0316608052610070565b60006020828403121561005257600080fd5b81516001600160a01b038116811461006957600080fd5b9392505050565b60805161128d6100a66000396000818160a8015281816103c6015281816104550152818161073b0152610946015261128d6000f3fe6080604052600436106100915760003560e01c8063a87f217011610059578063a87f21701461017f578063c6ce059d1461019f578063e373d327146101bf578063e9395679146101d2578063fa91454d146101f257600080fd5b80633596f3d61461009657806340762578146100e7578063575873e51461011d5780635e57966d146101325780636a324ca21461015f575b600080fd5b3480156100a257600080fd5b506100ca7f000000000000000000000000000000000000000000000000000000000000000081565b6040516001600160a01b0390911681526020015b60405180910390f35b3480156100f357600080fd5b5061010f610102366004610c61565b50670de0b6b3a764000090565b6040519081526020016100de565b61013061012b366004610c96565b610212565b005b34801561013e57600080fd5b5061015261014d366004610df4565b610515565b6040516100de9190610e68565b34801561016b57600080fd5b506100ca61017a366004610e7b565b610700565b34801561018b57600080fd5b5061015261019a366004610ec8565b6107c4565b3480156101ab57600080fd5b506100ca6101ba366004610c61565b610806565b6101306101cd366004610f48565b610917565b3480156101de57600080fd5b506101526101ed366004610fba565b6109bd565b3480156101fe57600080fd5b5061010f61020d366004610c61565b610ac6565b8151516102665760405162461bcd60e51b815260206004820152601960248201527f4d697373696e6720726563697069656e7420616464726573730000000000000060448201526064015b60405180910390fd5b6000826020015151116102ac5760405162461bcd60e51b815260206004820152600e60248201526d135a5cdcda5b99c8185b5bdd5b9d60921b604482015260640161025d565b60006102bb8360000151610806565b90506001600160a01b0381166103135760405162461bcd60e51b815260206004820152601960248201527f496e76616c696420726563697069656e74206164647265737300000000000000604482015260640161025d565b670de0b6b3a7640000600061033085604001518660600151610700565b6080860151519091501561039c57600061034d8660800151610ac6565b905080158061035b57504681145b61039a5760405162461bcd60e51b815260206004820152601060248201526f125b9d985b1a590818da185a5b88125160821b604482015260640161025d565b505b6001600160a01b0381166104395760a0850151604051631984f12160e01b81526001600160a01b037f00000000000000000000000000000000000000000000000000000000000000001691631984f1219134916104029188918791899190600401610fd3565b6000604051808303818588803b15801561041b57600080fd5b505af115801561042f573d6000803e3d6000fd5b50505050506104c1565b60a0850151604051631984f12160e01b81526001600160a01b037f00000000000000000000000000000000000000000000000000000000000000001691631984f1219161048e91879186918891600401610fd3565b600060405180830381600087803b1580156104a857600080fd5b505af11580156104bc573d6000803e3d6000fd5b505050505b336001600160a01b03167fccbd5248a2fadd919f77d9ffa9859ddf31e1b2f6d31486b30436e2d358ba8121858585858a60a00151604051610506959493929190611010565b60405180910390a25050505050565b604080518082018252601081526f181899199a1a9b1b9c1cb0b131b232b360811b60208201528151602a80825260608281019094526001600160a01b0385169291600091602082018180368337019050509050600360fc1b816000815181106105805761058061105f565b60200101906001600160f81b031916908160001a905350600f60fb1b816001815181106105af576105af61105f565b60200101906001600160f81b031916908160001a90535060005b60148110156106f757826004856105e184600c61108b565b602081106105f1576105f161105f565b1a60f81b6001600160f81b031916901c60f81c60ff16815181106106175761061761105f565b01602001516001600160f81b0319168261063283600261109e565b61063d90600261108b565b8151811061064d5761064d61105f565b60200101906001600160f81b031916908160001a905350828461067183600c61108b565b602081106106815761068161105f565b825191901a600f169081106106985761069861105f565b01602001516001600160f81b031916826106b383600261109e565b6106be90600361108b565b815181106106ce576106ce61105f565b60200101906001600160f81b031916908160001a905350806106ef816110b5565b9150506105c9565b50949350505050565b80516000901561071a5761071382610806565b90506107be565b8251156107ba5760405163efa74f1f60e01b81526000906001600160a01b037f0000000000000000000000000000000000000000000000000000000000000000169063efa74f1f90610770908790600401610e68565b602060405180830381865afa15801561078d573d6000803e3d6000fd5b505050506040513d601f19601f820116820180604052508101906107b191906110ce565b91506107be9050565b5060005b92915050565b60606107cf85610515565b6107d8856109bd565b84846040516020016107ed94939291906110eb565b6040516020818303038152906040529050949350505050565b80516000908290602a146108555760405162461bcd60e51b8152602060048201526016602482015275092dcecc2d8d2c840c2c8c8e4cae6e640d8cadccee8d60531b604482015260640161025d565b806000815181106108685761086861105f565b6020910101516001600160f81b031916600360fc1b1480156108af5750806001815181106108985761089861105f565b6020910101516001600160f81b031916600f60fb1b145b6108fb5760405162461bcd60e51b815260206004820152601a60248201527f41646472657373206d7573742073746172742077697468203078000000000000604482015260640161025d565b5073123456789012345678901234567890123456789092915050565b600061092285610806565b604051639e7ba2d360e01b8152909150670de0b6b3a7640000906001600160a01b037f00000000000000000000000000000000000000000000000000000000000000001690639e7ba2d390349061098390869086908a908a906004016111a9565b6000604051808303818588803b15801561099c57600080fd5b505af11580156109b0573d6000803e3d6000fd5b5050505050505050505050565b6060816000036109e45750506040805180820190915260018152600360fc1b602082015290565b8160005b8115610a0e57806109f8816110b5565b9150610a079050600a83611203565b91506109e8565b60008167ffffffffffffffff811115610a2957610a29610b95565b6040519080825280601f01601f191660200182016040528015610a53576020820181803683370190505b5090505b8415610abe57610a68600183611217565b9150610a75600a8661122a565b610a8090603061108b565b60f81b818381518110610a9557610a9561105f565b60200101906001600160f81b031916908160001a905350610ab7600a86611203565b9450610a57565b949350505050565b60008181805b8251811015610b8d576000838281518110610ae957610ae961105f565b016020015160f81c905060308110801590610b08575060398160ff1611155b610b545760405162461bcd60e51b815260206004820152601860248201527f496e76616c6964206e756d626572206368617261637465720000000000000000604482015260640161025d565b610b5f60308261123e565b60ff16610b6d84600a61109e565b610b77919061108b565b9250508080610b85906110b5565b915050610acc565b509392505050565b634e487b7160e01b600052604160045260246000fd5b60405160c0810167ffffffffffffffff81118282101715610bce57610bce610b95565b60405290565b600082601f830112610be557600080fd5b813567ffffffffffffffff80821115610c0057610c00610b95565b604051601f8301601f19908116603f01168101908282118183101715610c2857610c28610b95565b81604052838152866020858801011115610c4157600080fd5b836020870160208301376000602085830101528094505050505092915050565b600060208284031215610c7357600080fd5b813567ffffffffffffffff811115610c8a57600080fd5b610abe84828501610bd4565b60008060408385031215610ca957600080fd5b823567ffffffffffffffff80821115610cc157600080fd5b9084019060c08287031215610cd557600080fd5b610cdd610bab565b823582811115610cec57600080fd5b610cf888828601610bd4565b825250602083013582811115610d0d57600080fd5b610d1988828601610bd4565b602083015250604083013582811115610d3157600080fd5b610d3d88828601610bd4565b604083015250606083013582811115610d5557600080fd5b610d6188828601610bd4565b606083015250608083013582811115610d7957600080fd5b610d8588828601610bd4565b60808301525060a083013582811115610d9d57600080fd5b610da988828601610bd4565b60a08301525093506020850135915080821115610dc557600080fd5b50610dd285828601610bd4565b9150509250929050565b6001600160a01b0381168114610df157600080fd5b50565b600060208284031215610e0657600080fd5b8135610e1181610ddc565b9392505050565b60005b83811015610e33578181015183820152602001610e1b565b50506000910152565b60008151808452610e54816020860160208601610e18565b601f01601f19169290920160200192915050565b602081526000610e116020830184610e3c565b60008060408385031215610e8e57600080fd5b823567ffffffffffffffff80821115610ea657600080fd5b610eb286838701610bd4565b93506020850135915080821115610dc557600080fd5b60008060008060808587031215610ede57600080fd5b8435610ee981610ddc565b935060208501359250604085013567ffffffffffffffff80821115610f0d57600080fd5b610f1988838901610bd4565b93506060870135915080821115610f2f57600080fd5b50610f3c87828801610bd4565b91505092959194509250565b60008060008060808587031215610f5e57600080fd5b843567ffffffffffffffff80821115610f7657600080fd5b610f8288838901610bd4565b95506020870135915080821115610f9857600080fd5b610fa488838901610bd4565b94506040870135915080821115610f0d57600080fd5b600060208284031215610fcc57600080fd5b5035919050565b6001600160a01b038581168252841660208201526040810183905260806060820181905260009061100690830184610e3c565b9695505050505050565b60a08152600061102360a0830188610e3c565b6001600160a01b038781166020850152604084018790528516606084015282810360808401526110538185610e3c565b98975050505050505050565b634e487b7160e01b600052603260045260246000fd5b634e487b7160e01b600052601160045260246000fd5b808201808211156107be576107be611075565b80820281158282048414176107be576107be611075565b6000600182016110c7576110c7611075565b5060010190565b6000602082840312156110e057600080fd5b8151610e1181610ddc565b7f68747470733a2f2f7061792e6d6f6e61642e6c696e6b2f73656e643f746f3d0081526000855161112381601f850160208a01610e18565b6726616d6f756e743d60c01b601f91840191820152855161114b816027840160208a01610e18565b6626746f6b656e3d60c81b60279290910191820152845161117381602e840160208901610e18565b66266c6162656c3d60c81b602e9290910191820152835161119b816035840160208801610e18565b016035019695505050505050565b60018060a01b03851681528360208201526080604082015260006111d06080830185610e3c565b82810360608401526111e28185610e3c565b979650505050505050565b634e487b7160e01b600052601260045260246000fd5b600082611212576112126111ed565b500490565b818103818111156107be576107be611075565b600082611239576112396111ed565b500690565b60ff82811682821603908111156107be576107be61107556fea264697066735822122049a2536ca091bb2141b3c66d9bbb6251e73aa1c1b6f18fb0767744bf782778ca64736f6c63430008130033",
  "linkReferences": {},
  "deployedLinkReferences": {}
}