{
  "_format": "hh-sol-artifact-1",
  "contractName": "Shortzy",
  "sourceName": "contracts/shortzy.sol",
  "abi": [
    {
      "anonymous": false,
      "inputs": [
        {
          "indexed": true,
          "internalType": "address",
          "name": "user",
          "type": "address"
        },
        {
          "indexed": true,
          "internalType": "address",
          "name": "token",
          "type": "address"
        },
        {
          "indexed": false,
          "internalType": "uint256",
          "name": "amount",
          "type": "uint256"
        },
        {
          "indexed": false,
          "internalType": "int256",
          "name": "pnl",
          "type": "int256"
        },
        {
          "indexed": false,
          "internalType": "uint256",
          "name": "endTime",
          "type": "uint256"
        }
      ],
      "name": "MemeShortClosed",
      "type": "event"
    },
    {
      "anonymous": false,
      "inputs": [
        {
          "indexed": true,
          "internalType": "address",
          "name": "user",
          "type": "address"
        },
        {
          "indexed": true,
          "internalType": "address",
          "name": "token",
          "type": "address"
        },
        {
          "indexed": false,
          "internalType": "uint256",
          "name": "amount",
          "type": "uint256"
        },
        {
          "indexed": false,
          "internalType": "uint256",
          "name": "timestamp",
          "type": "uint256"
        }
      ],
      "name": "MemeShorted",
      "type": "event"
    },
    {
      "inputs": [
        {
          "internalType": "address",
          "name": "token",
          "type": "address"
        },
        {
          "internalType": "int256",
          "name": "pnl",
          "type": "int256"
        }
      ],
      "name": "closeShort",
      "outputs": [],
      "stateMutability": "nonpayable",
      "type": "function"
    },
    {
      "inputs": [
        {
          "internalType": "address",
          "name": "token",
          "type": "address"
        }
      ],
      "name": "getTokenTotalShorted",
      "outputs": [
        {
          "internalType": "uint256",
          "name": "",
          "type": "uint256"
        }
      ],
      "stateMutability": "view",
      "type": "function"
    },
    {
      "inputs": [
        {
          "internalType": "address",
          "name": "user",
          "type": "address"
        }
      ],
      "name": "getUserShorts",
      "outputs": [
        {
          "components": [
            {
              "internalType": "address",
              "name": "token",
              "type": "address"
            },
            {
              "internalType": "uint256",
              "name": "amount",
              "type": "uint256"
            },
            {
              "internalType": "uint256",
              "name": "startTime",
              "type": "uint256"
            },
            {
              "internalType": "uint256",
              "name": "endTime",
              "type": "uint256"
            },
            {
              "internalType": "int256",
              "name": "pnl",
              "type": "int256"
            }
          ],
          "internalType": "struct Shortzy.ShortRecord[]",
          "name": "",
          "type": "tuple[]"
        }
      ],
      "stateMutability": "view",
      "type": "function"
    },
    {
      "inputs": [
        {
          "internalType": "address",
          "name": "user",
          "type": "address"
        }
      ],
      "name": "getUserTotalPnL",
      "outputs": [
        {
          "internalType": "int256",
          "name": "",
          "type": "int256"
        }
      ],
      "stateMutability": "view",
      "type": "function"
    },
    {
      "inputs": [
        {
          "internalType": "address",
          "name": "",
          "type": "address"
        },
        {
          "internalType": "address",
          "name": "",
          "type": "address"
        }
      ],
      "name": "isShorting",
      "outputs": [
        {
          "internalType": "bool",
          "name": "",
          "type": "bool"
        }
      ],
      "stateMutability": "view",
      "type": "function"
    },
    {
      "inputs": [
        {
          "internalType": "address",
          "name": "token",
          "type": "address"
        },
        {
          "internalType": "uint256",
          "name": "usdcAmount",
          "type": "uint256"
        }
      ],
      "name": "short",
      "outputs": [],
      "stateMutability": "nonpayable",
      "type": "function"
    },
    {
      "inputs": [
        {
          "internalType": "address",
          "name": "",
          "type": "address"
        }
      ],
      "name": "totalShortedAmount",
      "outputs": [
        {
          "internalType": "uint256",
          "name": "",
          "type": "uint256"
        }
      ],
      "stateMutability": "view",
      "type": "function"
    },
    {
      "inputs": [
        {
          "internalType": "address",
          "name": "",
          "type": "address"
        }
      ],
      "name": "totalUserPnL",
      "outputs": [
        {
          "internalType": "int256",
          "name": "",
          "type": "int256"
        }
      ],
      "stateMutability": "view",
      "type": "function"
    },
    {
      "inputs": [
        {
          "internalType": "address",
          "name": "",
          "type": "address"
        },
        {
          "internalType": "uint256",
          "name": "",
          "type": "uint256"
        }
      ],
      "name": "userShortHistory",
      "outputs": [
        {
          "internalType": "address",
          "name": "token",
          "type": "address"
        },
        {
          "internalType": "uint256",
          "name": "amount",
          "type": "uint256"
        },
        {
          "internalType": "uint256",
          "name": "startTime",
          "type": "uint256"
        },
        {
          "internalType": "uint256",
          "name": "endTime",
          "type": "uint256"
        },
        {
          "internalType": "int256",
          "name": "pnl",
          "type": "int256"
        }
      ],
      "stateMutability": "view",
      "type": "function"
    }
  ],
  "bytecode": "0x608060405234801561001057600080fd5b50610824806100206000396000f3fe608060405234801561001057600080fd5b50600436106100935760003560e01c806384e40b671161006657806384e40b67146101775780638677dc391461018c578063b2d29f33146101ac578063c822936b146101bf578063d5dd704b146101df57600080fd5b80631d91274e146100985780636dd160ce146100d457806373341a3f146100f457806376958c2d14610139575b600080fd5b6100c16100a6366004610661565b6001600160a01b031660009081526002602052604090205490565b6040519081526020015b60405180910390f35b6100c16100e2366004610661565b60036020526000908152604090205481565b610107610102366004610683565b610208565b604080516001600160a01b0390961686526020860194909452928401919091526060830152608082015260a0016100cb565b6101676101473660046106ad565b600160209081526000928352604080842090915290825290205460ff1681565b60405190151581526020016100cb565b61018a610185366004610683565b610260565b005b61019f61019a366004610661565b6103fe565b6040516100cb91906106e0565b61018a6101ba366004610683565b6104a6565b6100c16101cd366004610661565b60026020526000908152604090205481565b6100c16101ed366004610661565b6001600160a01b031660009081526003602052604090205490565b6000602052816000526040600020818154811061022457600080fd5b6000918252602090912060059091020180546001820154600283015460038401546004909401546001600160a01b039093169550909350919085565b3360009081526001602090815260408083206001600160a01b038616845290915290205460ff166102d15760405162461bcd60e51b81526020600482015260166024820152754e6f742063757272656e746c792073686f7274696e6760501b60448201526064015b60405180910390fd5b33600090815260208190526040902080545b8015610361576000826102f760018461076d565b8154811061030757610307610786565b6000918252602090912060059091020180549091506001600160a01b03868116911614801561033857506003810154155b1561034e57426003820155600401839055610361565b50806103598161079c565b9150506102e3565b503360008181526001602090815260408083206001600160a01b03881684528252808320805460ff191690559282526003905290812080548492906103a79084906107b3565b9091555050604080516000815260208101849052428183015290516001600160a01b0385169133917f2549e782c6465da3e23da2a46c5c737e31b6dd23baf10da87224ae71c0df1e0f9181900360600190a3505050565b6001600160a01b038116600090815260208181526040808320805482518185028101850190935280835260609492939192909184015b8282101561049b5760008481526020908190206040805160a0810182526005860290920180546001600160a01b0316835260018082015484860152600282015492840192909252600381015460608401526004015460808301529083529092019101610434565b505050509050919050565b6001600160a01b0382166104ec5760405162461bcd60e51b815260206004820152600d60248201526c24b73b30b634b2103a37b5b2b760991b60448201526064016102c8565b600081116105315760405162461bcd60e51b81526020600482015260126024820152710416d6f756e74206d757374206265203e20360741b60448201526064016102c8565b3360009081526001602081815260408084206001600160a01b03871685528252808420805460ff191690931790925560029052812080548392906105769084906107db565b909155505033600081815260208181526040808320815160a0810183526001600160a01b0388811680835282860189815242848701818152606086018a8152608087018b8152885460018082018b55998d529b8b902097516005909c0290970180546001600160a01b0319169b9096169a909a1785559151958401959095555160028301559551600382015590516004909101558151868152928301529192917f84d111a224a01e1400399ade321d74d3fd872dd5b18fe641cd3aff9515e74a10910160405180910390a35050565b80356001600160a01b038116811461065c57600080fd5b919050565b60006020828403121561067357600080fd5b61067c82610645565b9392505050565b6000806040838503121561069657600080fd5b61069f83610645565b946020939093013593505050565b600080604083850312156106c057600080fd5b6106c983610645565b91506106d760208401610645565b90509250929050565b602080825282518282018190526000919060409081850190868401855b8281101561074a57815180516001600160a01b0316855286810151878601528581015186860152606080820151908601526080908101519085015260a090930192908501906001016106fd565b5091979650505050505050565b634e487b7160e01b600052601160045260246000fd5b8181038181111561078057610780610757565b92915050565b634e487b7160e01b600052603260045260246000fd5b6000816107ab576107ab610757565b506000190190565b80820182811260008312801582168215821617156107d3576107d3610757565b505092915050565b808201808211156107805761078061075756fea2646970667358221220b71735bb58e62997bb058b85912d346498bc5ea0054eba2bfb03a58f41680f2e64736f6c63430008140033",
  "linkReferences": {},
  "deployedLinkReferences": {}
}